:100000006AC079C078C077C076C075C074C073C04C
:1000100072C071C070C06FC06EC06DC06CC06BC06C
:100020006AC069C068C067C066C065C064C063C09C
:100030006DC061C0A7C080C07FC07EC07DC07CC0D5
:100040007BC07AC09FC078C077C076C075C074C0CE
:1000500073C072C0A1C070C06FC06EC06DC06CC0F4
:100060006BC06AC069C068C067C066C065C064C054
:1000700063C062C091C060C05FC05EC05DC05CC054
:100080005BC05AC059C058C057C056C055C054C0B4
:1000900053C052C098C050C04FC04EC04DC04CC09D
:1000A0004BC04AC094C048C047C046C045C044C0C9
:1000B00043C042C041C040C03FC03EC03DC03CC044
:1000C0003BC03AC092C038C037C036C035C034C01B
:1000D00033C032C048C011241FBECFEFD2E0DEBF14
:1000E000CDBF21E0A0E0B1E001C01D92AE35B20766
:1000F000E1F70DD18EC184CF84B1876084B980E5EA
:100100008CBD81E08DBD089580E008951F920F920F
:100110000FB60F9211242F933F938F939F93AF931A
:10012000BF93EF93FF93E091B9008E2F90E0FC0115
:100130003897E135F105A0F08091B900809309016D
:1001400084E08093BC00FF91EF91BF91AF919F91AC
:100150008F913F912F910F900FBE0F901F90189588
:10016000E65EFF4F099480910001E0910A01F09151
:100170000B01E80FF11D8091BB00808384E980931F
:10018000BC00E1CF80910C018093BB001092000174
:1001900085E88093BC00D7CF8091000190910D013C
:1001A000891760F7E0910A01F0910B0191E0980F37
:1001B00090930001E80FF11D80818093BB0085E8DA
:1001C0008093BC00C0CF85EA8093BC00BCCF209157
:1001D000000180910D0130E090E001972817390768
:1001E000DCF485EC8093BC00AECFE0910A01F09185
:1001F0000B018091000121E0280F20930001E80FFE
:10020000F11D8091BB00808380910D0130E090E072
:100210000197281739072CF385E88093BC0093CF0A
:100220008091BC00817008959091BC0090FDFCCF3E
:100230008E7F80930C0170930B0160930A014093B1
:100240000D0185EA8093BC0008959091BC0090FD5B
:10025000FCCF816080930C0170930B0160930A01C5
:1002600040930D0185EA8093BC0008958FEF809341
:10027000BB001092B9008CE08093B8000895909173
:10028000C00095FFFCCF8093C6000895FC0120813B
:10029000222351F031969091C00095FFFCCF20931E
:1002A000C60021912111F7CF08959C01FC01849192
:1002B000882371F0F901E4912F5F3F4F9091C000C6
:1002C00095FFFCCFE093C600F90184918111F2CF34
:1002D0000895E1ECF0E0808188618083E2ECF0E059
:1002E0008081866080831092C50083E38093C40080
:1002F000089580E89EE302C0019739F02091C00084
:1003000027FFFACF8091C600089580E00895CF932B
:10031000DF9300D0CDB7DEB784B1876084B980E5C4
:100320008CBD81E08DBDA2DFD4DF7894CE01019633
:100330008093050142E065E071E080E975DF8FE9B7
:100340009FE00197F1F700C000009FEF24E38CE0ED
:10035000915020408040E1F700C0000042E067E09B
:1003600071E081E972DF8FE99FE00197F1F700C04A
:10037000000080910701909108019827892798270C
:100380009A8389834AE061E071E0880F892F881F92
:10039000990B91950BD08091010171DF8091020141
:1003A0006EDF80E26CDF80E06ADFCFCFBB274A30B0
:1003B00031F4992322F4BDE2909581959F4F01C0BD
:1003C000BB27FB015527AA27880F991FAA1FA4172F
:1003D00010F0A41B83955051B9F7A05DAA3308F023
:1003E000A95DA193009779F7B111B1931192CB0157
:1003F00000C0DC01FC01672F71917723E1F7329790
:1004000004C07C916D9370836291AE17BF07C8F3EF
:060410000895F894FFCFEF
:00000001FF
