S00C00004C6162342E73726563D5
S11300000C9446000C9465000C9465000C946500F7
S11300100C9465000C9465000C9465000C946500C8
S11300200C9465000C9465000C9465000C946500B8
S11300300C9444020C9465000C9465000C946500C7
S11300400C94FE010C9465000C9465000C946500FE
S11300500C9465000C9465000C9465000C94650088
S11300600C9465000C9465000C9465000C94650078
S11300700C9465000C9465000C9465000C94650068
S11300800C9465000C9465000C94650011241FBE4B
S1130090CFEFD0E1DEBFCDBF11E0A0E0B1E0EAE0F8
S11300A0F2E100E00BBF02C007900D92AE32B1073F
S11300B0D9F721E0AEE2B1E001C01D92A637B20744
S11300C0E1F70E94C4070C9403090C940000C7983C
S11300D08FB9779BFECF13B88FEF83B98FB190E0C0
S11300E00895482FE82FF0E099B3EE0FFF1FEB5C63
S11300F0FE4F20813181220F331F306E892F90E013
S113010002C0959587954A95E2F781709927282B27
S1130110392B3183208381E02115304F09F080E0B1
S113012008950F931F93CF93DF938C0130910501B2
S1130130E32FF0E0EF01219721E0C817D90760F41D
S1130140BF010E948B08CB012F5F2530B1F7DF91EF
S1130150CF911F910F9108952330A1F0243009F419
S113016055C02230C1F1F801E95FFE4F80818093D0
S113017027018091070180932601809324018093B5
S11301802301E5CFC801BF010E948B08DC01A95FF0
S1130190BE4F8C9180932701CB01BF010E948B0835
S11301A0FC01E95FFE4F808180932601339FB001FB
S11301B01124C8010E948B08FB01E95FFE4F808176
S11301C0809324018091070180932301DF91CF91D3
S11301D01F910F910895C801BF010E948B08FC0173
S11301E0E95FFE4F808180932701FB01E95FFE4FA9
S11301F0808180932601809107018093240180935C
S11302002301DF91CF911F910F910895C801BF0180
S11302100E948B08DC01A95FBE4F8C91809327015B
S1130220CB01BF010E948B08DC01A95FBE4F8C91FA
S113023080932601339F90011124C801B9010E94C3
S11302408B08CB01BF010E948B08DC01A95FBE4F64
S11302508C9180932401E29FB001E39F700DF29F83
S1130260700D1124C8010E948B08FB01E95FFE4F49
S1130270808180932301DF91CF911F910F91089585
S11302808230C9F188F4882381F18130F1F497E157
S113029098BB909126019BBBEFE9FFE03197F1F702
S11302A000C000008F5F08958330C9F0843069F482
S11302B087E488BB809123018BBB8FE99FE0019782
S11302C0F1F700C0000080E00895EFE9FFE0319706
S11302D0F1F700C00000843029F780E0089597E327
S11302E098BB909124019BBBD7CF97E098BB90918A
S11302F027019BBBD1CF97E298BB909125019BBB73
S1130300CBCF1ABA9FEF9BBB90E798BB95E39A9526
S1130310F1F70000E5E3F1E060E070E0A1E0B0E0B7
S113032099B320813181220F331FA901506E292FE7
S113033030E0062E02C0359527950A94E2F7217025
S11303403327242B352B219331932115304F39F446
S11303509D01062E01C0220F0A94EAF782276F5FDF
S11303607F4F68307105E1F69FEF9ABB0895482FDF
S1130370282F392FA9E8B8E80E94D2089C013695A5
S11303802795329522952F7023273F7023278CE3DE
S1130390289F40191124842F90E044E6249F800D67
S11303A0911D1124089590910401292F237071F453
S11303B0282F23702130E9F09C7091F4982F9C70C1
S11303C09430B9F08093040180E008952130A1F7BE
S11303D0282F237089F78F70809304018FEF08957D
S11303E0943081F7982F9C70B1F38093040180E0DE
S11303F008958F708093040181E008951F920F92F5
S11304000FB60F9211242F933F938F939F932091B4
S1130410250183E0822780932501809134018C3368
S1130420A0F490913001913029F1909133018F5FC4
S1130430809334019A30C1F09F918F913F912F9115
S11304400F900FBE0F901F90189580912E019091E0
S11304502F01019690932F0180932E011092340165
S1130460909133019A3041F782E0809330011092E9
S11304703301E2CF909133019F5F9093330137E0D2
S1130480232720932501D3CF1F920F920FB60F92EB
S113049011248F9382B3805882BB8F910F900FBE2B
S11304A00F901F901895CF93C82FC7981FB8779BAC
S11304B0FECF13B88FEF83B98FB10E94D301482FB9
S11304C02091310130913201C901840F911D47FD02
S11304D09A959093320180933101C1111DC02FE987
S11304E035E03093030120930201009721F44F3F3C
S11304F011F1CF9108952091020130910301281741
S11305003907B8F7232B79F08CE390E0909332010C
S113051080933101CF9108952BE033E030930301B0
S113052020930201E2CF109232011092310180E057
S113053090E0CF91089580910201909103019093EE
S1130540320180933101CF910895C7981FB8779BEA
S1130550FECF13B88FEF83B98FB10E94D301482F18
S11305602091000130910101C901840F911D47FDC3
S11305709A959093010180930001009719F44F3FDD
S113058061F008958F3F910589F080F01092010188
S11305901092000180E090E008958FEF90E0909336
S11305A00101809300018EEF91E00895880F991F57
S11305B008958FEF8ABB87BB8F9A82B1806682B918
S11305C012BA80E188BB80B7886080BF8DB1806536
S11305D08DB981E08EB987B7816187BF83B78560A4
S11305E083BF1FBC8EB588608EBD10927A00EBE885
S11305F0F0E0808189608083808188608083EAE87C
S1130600F0E08081896080838FE09FE09BBD8ABD9C
S1130610109283001092820085B58A6685BD86B1EA
S1130620876086B93E9A3D9A359A379A369A0E94DF
S113063051057894089591E0811101C090E09FB92B
S1130640779BFECF6FB9779BFECF80916200886065
S11306508093620080916200877F80936200089596
S113066020914501820F911DFC01808191E09FB989
S1130670779BFECF8FB9779BFECF80916200886015
S11306808093620080916200877F809362008091F2
S113069045018F5F809345018031D9F0803209F0A4
S11306A0089585ED8A95F1F700001FB8779BFECF7A
S11306B080E88FB9779BFECF809162008860809339
S11306C0620080916200877F8093620010924501EE
S11306D00895F5EDFA95F1F700001FB8779BFECF6A
S11306E080EC8FB9779BFECF809162008860809305
S11306F0620080916200877F80936200809145014F
S1130700CDCF660F660F660F605C1FB8779BFECF78
S11307106FB9779BFECF209162002860209362001E
S113072020916200277F2093620025ED2A95F1F73E
S11307300000FC019C01285F3F4F91E081919FB92B
S1130740779BFECF8FB9779BFECF80916200886044
S11307508093620080916200877F8093620085EDC0
S11307608A95F1F70000E217F30741F7089590E442
S1130770899F600D1124605C1FB8779BFECF6FB911
S1130780779BFECF809162008860809362008091A5
S11307906200877F809362000895811113C081E015
S11307A08FB9779BFECF80E38FB9779BFECF809183
S11307B0620088608093620080916200877F8093EA
S11307C0620008958436B0F48A3060F591E09FB9F0
S11307D0779BFECF9DEC899F912D1124969596953C
S11307E096952AE0929F80191124805D8FB9779B9A
S11307F0FECFDDCF99E2899F912D112492959F70B0
S1130800905D21E02FB9779BFECF9FB9779BFECFF8
S11308109091620098609093620090916200977F3B
S11308209093620099E2899F912D112492959F7073
S1130830382F24E6929F301911242DEC329F912DEC
S11308401124969596959695905D21E02FB9779B06
S1130850FECF9FB9779BFECF9091620098609093F2
S1130860620090916200977F90936200AFCF87FF00
S11308700C94CD0391E09FB9779BFECF9DE29FB985
S1130880779BFECF90916200986090936200909164
S11308906200977F9093620095ED9A95F1F70000BE
S11308A081950C94CD031FB8779BFECF8EE08FB952
S11308B0779BFECF80916200886080936200809174
S11308C06200877F8093620008951FB8779BFECFF4
S11308D08CE08FB9779BFECF809162008860809313
S11308E0620080916200877F8093620008951FB840
S11308F0779BFECF8EE18FB9779BFECF809162000C
S113090088608093620080916200877F8093620098
S113091008951FB8779BFECF88E18FB9779BFECFF0
S11309208091620088608093620080916200877F7A
S1130930809362000895E2E6F0E08081886080831D
S11309408081877F808308951FB8779BFECF81E0E5
S11309508FB9779BFECF809162008860809362009C
S113096080916200877F809362008FE19CE1019710
S1130970F1F700C0000008951FB8779BFECF82E016
S11309808FB9779BFECF809162008860809362006C
S113099080916200877F809362008FE697E10197E0
S11309A0F1F700C0000008951FB8779BFECF80ECDC
S11309B08FB9779BFECF809162008860809362003C
S11309C080916200877F8093620008951FB8779BAF
S11309D0FECF80E88FB9779BFECF8091620088605C
S11309E08093620080916200877F80936200089503
S11309F090E131E020E23FB9779BFECF2FB9779B9E
S1130A00FECF8091620088608093620080916200D2
S1130A10877F8093620085ED8A95F1F700009150FD
S1130A2051F7089591E09FB9779BFECF8FB9779BDB
S1130A30FECF8091620088608093620080916200A2
S1130A40877F809362000895FC0140E050E060E0FD
S1130A5071E0DF01A40FB51F8C917FB9779BFECFA6
S1130A608FB9779BFECF909162009860909362005B
S1130A7090916200977F9093620085ED8A95F1F7DB
S1130A8000006F5F462F50E0DF010D900020E9F772
S1130A909D012E1B3F0B2250310924173507C8F640
S1130AA008958FEF99EF0197F1F700C0000088E0F7
S1130AB0809361001FB8779BFECF80E38FB9779B4B
S1130AC0FECF809162008860809362008091620012
S1130AD0877F809362008FE59DE60197F1F700C060
S1130AE000001FB8779BFECF80E38FB9779BFECFC2
S1130AF08091620088608093620080916200877FA9
S1130B00809362008FE59DE60197F1F700C0000035
S1130B101FB8779BFECF80E38FB9779BFECF809180
S1130B20620088608093620080916200877F809376
S1130B3062008FE59DE60197F1F700C000001FB841
S1130B40779BFECF88E38FB9779BFECF80916200BD
S1130B5088608093620080916200877F8093620046
S1130B608FE19EE40197F1F700C000001FB8779B66
S1130B70FECF88E08FB9779BFECF809162008860BA
S1130B808093620080916200877F809362008FE18E
S1130B909EE40197F1F700C000001FB8779BFECFD9
S1130BA081E08FB9779BFECF80916200886080934B
S1130BB0620080916200877F809362008FE19EE4EF
S1130BC00197F1F700C000001FB8779BFECF86E0C5
S1130BD08FB9779BFECF809162008860809362001A
S1130BE080916200877F809362008FE19EE4019789
S1130BF0F1F700C000001FB8779BFECF8CE08FB9DF
S1130C00779BFECF80916200886080936200809120
S1130C106200877F809362008FE19EE40197F1F781
S1130C2000C0000008954F925F926F927F928F925E
S1130C309F92AF92BF92CF92DF92EF92FF920F9367
S1130C401F93CF93DF93CDB7DEB769970FB6F894B0
S1130C50DEBF0FBECDBF142F422E5E2C002379F0D1
S1130C606B017C01CC24F7FCC394DD24EE24FF2427
S1130C700C2D6B017C0197FDA3C0C701B601442074
S1130C8009F496C09E012F5F3F4F59014901662424
S1130C906A94640C712C3FEF631A730A6A0C7B1C10
S1130CA02AE030E040E050E00E94B308E62F2A8BAF
S1130CB03B8B4C8B5D8B6A897B898C899D8920E376
S1130CC02E0FF40121934F016E167F0649F79924E4
S1130CD09394940CF501E40DF11D2EE220832AE097
S1130CE030E040E050E00E94B308E62F2A8B3B8BB3
S1130CF04C8B5D8B6E8B7F8B888F998F6A897B89F8
S1130D008C899D8931E0390DD501A90DB11DE05DB6
S1130D10EC93932E611571058105910501F711235B
S1130D2061F051104BC090E2311738F4F501E30F34
S1130D30F11D90833F5F1313F9CF002331F0F501C8
S1130D40E30FF11D9DE290833F5F21E03150F501F7
S1130D50E30FF11D90812FB9779BFECF9FB9779B4D
S1130D60FECF90916200986090936200909162002F
S1130D70977F9093620085ED8A95F1F70000311119
S1130D80E5CF69960FB6F894DEBF0FBECDBFDF91F5
S1130D90CF911F910F91FF90EF90DF90CF90BF9074
S1130DA0AF909F908F907F906F905F904F90089539
S1130DB0912C9E012F5F3F4F590191CF90E3B4CF07
S1130DC0F094E094D094C094C11CD11CE11CF11C9B
S1130DD054CF5F926F927F928F929F92AF92BF9205
S1130DE0CF92DF92EF92FF920F931F93CF93DF93F3
S1130DF0CDB7DEB761970FB6F894DEBF0FBECDBF97
S1130E005C01962E542E622E8B2C881C8824881C00
S1130E10782C9C0197FD9DC0552009F48EC08E014D
S1130E200F5F1F4F7801CC24CA94C50CD12C8FEFCF
S1130E30C81AD80AC00ED11E6AE070E0C9010E9427
S1130E409F08462F242F372F805DF70181937F0160
S1130E50EC15FD0589F7FF24F394F50CF801E50D75
S1130E60F11D8EE2808301C0F92E6AE070E0C901B1
S1130E700E949F08462F242F372F91E09F0DF801E1
S1130E80EF0DF11D805D80832115310569F7611037
S1130E9059C0B7FC63C09920B1F0682D70E080E2BE
S1130EA0292F30E0492D50E0461B570B24173507F6
S1130EB054F49F5FF801E20FF31F8083292F30E081
S1130EC024173507B4F3772031F0F801E90FF11D49
S1130ED08DE280839F5F21E09150F801E90FF11DBD
S1130EE080812FB9779BFECF8FB9779BFECF8091FE
S1130EF0620088608093620080916200877F8093A3
S1130F006200F5EDFA95F1F700009111E5CF6196D5
S1130F100FB6F894DEBF0FBECDBFDF91CF911F9106
S1130F200F91FF90EF90DF90CF90BF90AF909F9084
S1130F308F907F906F905F900895F12C8E010F5FDA
S1130F401F4F93CF992009F4BECF682D70E080E342
S1130F50A7CF22273327281B390B5ECFF394F394B2
S1130F60F801E90FF11D8DE28083992059F02F2DAE
S1130F7030E0492D50E02417350724F49F2D712CBF
S1130F8080E297CF9F2DA7CF0E94D90299249394F2
S1130F90D12CC12CEE24E394F12CC0E0D0E000E08D
S1130FA010E07724739488248A9454E6A52E64EC84
S1130FB0B62E1CC09E01A9E8B8E80E94D2089695F6
S1130FC08795929582958F7089279F708927B89EFF
S1130FD0C00D1124D0E08A9DC00DD11D1124CE0175
S1130FE00E949100802F0E944001082F812F0E94AF
S1130FF08101182F813009F47FC0823009F45FC069
S11310008330F9F0843009F451C0853009F47AC092
S1131010883029F0C0912E01D0912F0110E085B1C4
S1131020880F8E5583BD809130018230B1F0C1109C
S113103014C0DD2009F4BECF91102EC0DD24D3945A
S1131040B9CF809125018B7F8093250185B1880FCD
S11310508E5583BD8091300110E080912E019091D6
S11310602F018E159F0539F080913001823019F0DF
S1131070CC24C394DECF809130018130C9F38EB586
S11310808B608EBD0E94A5029093830080938200A2
S1131090CC24C394992091F20E94A40488E291E0A4
S11310A00E942405DD24D394912C84CFCC20C1F05C
S11310B08EB51EBC8EB51EBC70923001C7CF109287
S11310C030018092250110928300109282000E94C8
S11310D0A404D12CEE24E394F12CC0E0D0E000E091
S11310E085B1880F8E5583BD8091300110E0823028
S11310F009F4B3CFC12C9DCF80E00E945302EC01D0
S11311007C018DCF80E00E94530290932F01809345
S11311102E0110E084CFAA1BBB1B51E107C0AA1FFC
S1131120BB1FA617B70710F0A61BB70B881F991F84
S11311305A95A9F780959095BC01CD01089597FB28
S1131140072E16F4009407D077FD09D00E948B086F
S113115007FC05D03EF4909581959F4F08957095B6
S113116061957F4F0895052E97FB1EF400940E940D
S1131170CA0857FD07D00E94E10807FC03D04EF4CB
S11311800C94CA0850954095309521953F4F4F4F88
S11311905F4F089590958095709561957F4F8F4F1F
S11311A09F4F0895A29FB001B39FC001A39F700DEC
S11311B0811D1124911DB29F700D811D1124911D5B
S11311C00895A1E21A2EAA1BBB1BFD010DC0AA1F84
S11311D0BB1FEE1FFF1FA217B307E407F50720F09C
S11311E0A21BB30BE40BF50B661F771F881F991F17
S11311F01A9469F760957095809590959B01AC0160
S10D1200BD01CF010895F894FFCF5B
S113120AE0009F050F0A01C0F9A4B0999283F880FF
S113121A988883C6A1868EC0F9A4B0999283F8806F
S111122A987F04FFFFFFFFFF414C41524D002F
S9030000FC
