:100000000C9497000C94B6000C94B6000C94B600B7
:100010000C94B6000C94B6000C94B6000C94B60088
:100020000C944F020C94B6000C94B6000C94B600DD
:100030000C94D4020C94B6000C94B6000C94B60048
:100040000C945E020C94B6000C94A4020C94B600BE
:100050000C94B6000C94B6000C94B6000C94B60048
:100060000C94B6000C94B6000C94B6000C94B60038
:100070000C94B6000C94B6000C94B6000C94B60028
:100080000C94B6000C94790A0C94B600BA0A910A42
:10009000910A910A910A910A910A910ABA0A910A5F
:1000A000910A910A910A910A910A910AC40A910A45
:1000B000910A910A910A910A910A910A910A910A68
:1000C000910A910A910A910A910A910AC40A910A25
:1000D000910A910A910A910A910A910A910A910A48
:1000E000910A910A910A910A910A910ADB0A910AEE
:1000F000910A910A910A910A910A910ADF0A910ADA
:10010000910A910A910A910A910A910A910A910A17
:10011000910A910A910A910A910A910AED0A910AAB
:10012000910A910A910A910A910A910AAB0A112443
:100130001FBECFEFD0E1DEBFCDBF11E0A0E0B1E048
:10014000ECEFFAE100E00BBF02C007900D92AC3774
:10015000B107D9F722E0ACE7B1E001C01D92A236A9
:10016000B207E1F70E94780B0C947C0D0C94000010
:10017000C7988FB9779BFECF13B88FEF83B98FB134
:1001800090E00895482FE82FF0E099B3EE0FFF1F9D
:10019000E957FE4F20813181220F331F306E892FA6
:1001A00090E002C0959587954A95E2F7817099276E
:1001B000282B392B3183208381E02115304F09F022
:1001C00080E008950F931F93CF93DF938C013091BC
:1001D0005901E32FF0E0EF01219721E0C817D9077B
:1001E00060F4BF010E94C60CCB012F5F2530B1F730
:1001F000DF91CF911F910F9108952330A1F024300A
:1002000009F455C02230C1F1F801E55AFE4F808152
:1002100080937B0180915B0180937A0180937801C8
:1002200080937701E5CFC801BF010E94C60CDC01B5
:10023000A55ABE4F8C9180937B01CB01BF010E94D8
:10024000C60CFC01E55AFE4F808180937A01339FF2
:10025000B0011124C8010E94C60CFB01E55AFE4FF3
:1002600080818093780180915B0180937701DF9199
:10027000CF911F910F910895C801BF010E94C60C34
:10028000FC01E55AFE4F808180937B01FB01E55A1A
:10029000FE4F808180937A0180915B018093780189
:1002A00080937701DF91CF911F910F910895C8013D
:1002B000BF010E94C60CDC01A55ABE4F8C918093F1
:1002C0007B01CB01BF010E94C60CDC01A55ABE4FC9
:1002D0008C9180937A01339F90011124C801B90158
:1002E0000E94C60CCB01BF010E94C60CDC01A55ABE
:1002F000BE4F8C9180937801E29FB001E39F700D17
:10030000F29F700D1124C8010E94C60CFB01E55A32
:10031000FE4F808180937701DF91CF911F910F91E4
:1003200008958230C9F188F4882381F18130F1F495
:1003300097E198BB90917A019BBBEFE9FFE0319781
:10034000F1F700C000008F5F08958330C9F084305A
:1003500069F487E488BB809177018BBB8FE99FE0CC
:100360000197F1F700C0000080E00895EFE9FFE099
:100370003197F1F700C00000843029F780E008953C
:1003800097E398BB909178019BBBD7CF97E098BB40
:1003900090917B019BBBD1CF97E298BB9091790163
:1003A0009BBBCBCF1ABA9FEF9BBB90E798BB95E363
:1003B0009A95F1F70000E7E8F1E060E070E0A1E075
:1003C000B0E099B320813181220F331FA901506E13
:1003D000292F30E0062E02C0359527950A94E2F7C2
:1003E00021703327242B352B219331932115304F46
:1003F00039F49D01062E01C0220F0A94EAF78227E4
:100400006F5F7F4F68307105E1F69FEF9ABB0895EB
:10041000482F282F392FA9E8B8E80E94160D9C0113
:1004200036952795329522952F7023273F702327E5
:100430008CE3289F40191124842F90E044E6249FE8
:10044000800D911D1124089590910401292F23708E
:1004500071F4282F23702130E9F09C7091F4982FCB
:100460009C709430B9F08093040180E008952130AD
:10047000A1F7282F237089F78F70809304018FEFE5
:100480000895943081F7982F9C70B1F38093040104
:1004900080E008958F708093040181E008951F9299
:1004A0000F920FB60F9211248F9381E08093C501B4
:1004B0008F910F900FBE0F901F9018951F920F9263
:1004C0000FB60F9211242F933F938F939F932091F8
:1004D000790183E0822780937901809186018C33B2
:1004E000A0F490918101913029F1909185018F5F65
:1004F000809386019A30C1F09F918F913F912F9107
:100500000F900FBE0F901F90189580917F019091D2
:10051000800101969093800180937F011092860163
:10052000909185019A3041F782E080938101109289
:100530008501E2CF909185019F5F9093850137E01F
:10054000232720937901D3CF1F920F920FB60F92DA
:1005500011240BB60F928F939F93EF93FF938CB15F
:10056000E0918401F0E0EB5FFE4F80831CB8809146
:100570008401E82FF0E0EB5FFE4F9081903271F044
:100580008F5F80938401FF91EF919F918F910F90E6
:100590000BBE0F900FBE0F901F90189581E08093B7
:1005A0007E0110928401EFCF1F920F920FB60F922F
:1005B00011248F9382B3805882BB8F910F900FBE0E
:1005C0000F901F901895CF93C82FC7981FB8779B8F
:1005D000FECF13B88FEF83B98FB10E942402482F4A
:1005E0002091820130918301C901840F911D47FD43
:1005F0009A959093830180938201C1111BC02FE9CA
:1006000035E03093030120930201009721F44F3F1E
:10061000C1F0CF9108952091020130910301281774
:100620003907B8F7109283011092820180E090E0C0
:10063000CF9108952BE033E0309303012093020122
:10064000E4CF809102019091030190938301809304
:100650008201CF910895C7981FB8779BFECF13B83A
:100660008FEF83B98FB10E942402482F209100019F
:1006700030910101C901840F911D47FD9A95909316
:10068000010180930001009719F44F3F61F0089534
:100690008F3F910589F080F01092010110920001C6
:1006A00080E090E008958FEF90E0909301018093B7
:1006B00000018EEF91E00895880F991F089542E0A0
:1006C00060E672E081E90E941D0B8FEC97E00197D4
:1006D000F1F700C0000080916002909161029827BC
:1006E000892798274AE069ED71E0880F892F881FD4
:1006F000990B91950E94470D89E480932F018EE418
:100700008093300124E5209331019AE390933201E4
:100710008091D901809333018091DA018093340173
:1007200080E28093350135E43093360138E530932B
:1007300037012093380190933901909106019093ED
:100740003A019091070190933B0190910801909399
:100750003C0180933D0180933E0180917D0188237F
:1007600009F181E480933F019CE4909340018093E0
:10077000410182E5809342018DE48093430185E14C
:1007800090E2E82FF0E0E15DFE4F90838F5F8932C9
:10079000C1F780917C01811104C080917E0181119B
:1007A00003C0089580E1ECCF8FE291E00C94E50561
:1007B000129A169A139A82B1856082B91A9A1E9A71
:1007C0001F98179A1A9A8FE193E00197F1F700C0EA
:1007D00000001A9890EA9A95F1F7179886EA92E243
:1007E0009093C4018093C3010E9470052FEF85EAA6
:1007F0009EE0215080409040E1F700C000000E9440
:10080000080B8111FCCF0C947A040E9470052FEF25
:1008100085EA9EE0215080409040E1F700C0000052
:100820000E94080B8111FCCF0C947A048FEF8ABBD5
:1008300087BB8F9A82B1806682B9129A12BA80E120
:1008400088BB80B7886080BF8DB180658DB981E03D
:100850008EB987B7816187BF83B7856083BF1FBCAF
:100860008EB588608EBD10927A00EBE8F0E0808152
:1008700089608083808188608083EAE8F0E08081FD
:10088000896080838FE09FE09BBD8ABD85B58A66C5
:1008900085BD86B1876086B93E9A3D9A359A379A6A
:1008A000369A0E9406080E942E0B0E945E0B7894D6
:1008B0000C94D80384E180939D0141E06DE971E0DF
:1008C00082E20E940C0B0E94080B8111FCCF8FEA80
:1008D00094E00197F1F700C0000041E06AEC71E09C
:1008E00082E20E941D0B0E94080B8111FCCF8091B7
:1008F000CA01089580E280939D0110929E0180912B
:10090000C3019091C40190939F018093A001109224
:10091000A1011092C50145E06DE971E082E20E94FB
:100920000C0B8091C5018823E1F3089580E4809346
:100930009D0110929E018091C1019091C2019093FE
:100940009F018093A0011092A1011092A201109228
:10095000C50146E06DE971E082E20E940C0B8091D6
:10096000C5018823E1F30895EDE9F1E080E4808397
:1009700011828091C6019091C70192838383148272
:1009800081E0858346E0BF0182E20E940C0B2FEFDD
:1009900087EE93E0215080409040E1F700C00000D6
:1009A000089581E180939D0141E06DE971E082E26B
:1009B0000E940C0B87ED94E00197F1F700C0000056
:1009C000089583E280939D0181E080939E0142E03F
:1009D0006DE971E082E20E940C0B0E94080B81110C
:1009E000FCCF8FEA94E00197F1F700C0000048E0E7
:1009F00066EA71E082E20E941D0B0E94080B8111E1
:100A0000FCCF089582E280939D0181E080939E0156
:100A100042E06DE971E082E20E940C0B0E94080B3B
:100A20008111FCCF8FEA94E00197F1F700C000003C
:100A300048E066EA71E082E20E941D0B0E94080B0A
:100A40008111FCCF089582E480939D0181E0809321
:100A50009E0142E06DE971E082E20E940C0B0E946F
:100A6000080B8111FCCF8FEA94E00197F1F700C0E9
:100A7000000048E066EA71E082E20C941D0B83E41A
:100A800080939D0181E080939E0142E06DE971E0D9
:100A900082E20E940C0B0E94080B8111FCCF8FEAAE
:100AA00094E00197F1F700C0000048E066EA71E0C9
:100AB00082E20C941D0BEDE9F1E022E1208311822A
:100AC000928383837483658346E0BF0182E20E9440
:100AD0000C0B8FE39CE90197F1F700C0000008952B
:100AE000EDE9F1E081E0808380E5818385E0828328
:100AF00043E0BF0182E20E940C0B2FEF8BED95E0EB
:100B0000215080409040E1F700C0000061E070E0BB
:100B100081E090E00C945B05EDE9F1E081E08083F9
:100B200081E5818385E0828343E0BF0182E20E9408
:100B30000C0B2FEF8BED95E0215080409040E1F7BA
:100B400000C0000061E070E081E090E00C945B0583
:100B5000EDE9F1E081E0808381E5818385E08283B6
:100B600043E0BF0182E20E940C0B2FEF8BED95E07A
:100B7000215080409040E1F700C0000060E070E04C
:100B800082E093E30E945B0561E071E082E091E323
:100B90000E945B0561E070E081E090E00C945B05F1
:100BA00091E0811101C090E09FB9779BFECF6FB9B2
:100BB000779BFECF80916200886080936200809175
:100BC0006200877F80936200089520919701820FD1
:100BD000911DFC01808191E09FB9779BFECF8FB979
:100BE000779BFECF80916200886080936200809145
:100BF0006200877F80936200809197018F5F80936E
:100C000097018031D9F0803209F0089585ED8A95F9
:100C1000F1F700001FB8779BFECF80E88FB9779B74
:100C2000FECF8091620088608093620080916200B4
:100C3000877F80936200109297010895F5EDFA95F1
:100C4000F1F700001FB8779BFECF80EC8FB9779B40
:100C5000FECF809162008860809362008091620084
:100C6000877F8093620080919701CDCF660F660FDA
:100C7000660F605C1FB8779BFECF6FB9779BFECF86
:100C80002091620028602093620020916200277FFB
:100C90002093620025ED2A95F1F70000FC019C01EC
:100CA000285F3F4F91E081919FB9779BFECF8FB92D
:100CB000779BFECF80916200886080936200809174
:100CC0006200877F8093620085ED8A95F1F70000CE
:100CD000E217F30741F7089590E4899F600D11240E
:100CE000605C1FB8779BFECF6FB9779BFECF80917A
:100CF000620088608093620080916200877F8093A9
:100D000062000895811113C081E08FB9779BFECFF7
:100D100080E38FB9779BFECF8091620088608093DB
:100D2000620080916200877F80936200089584361C
:100D3000B0F48A3060F591E09FB9779BFECF9DECCF
:100D4000899F912D11249695969596952AE0929FCC
:100D500080191124805D8FB9779BFECFDDCF99E29A
:100D6000899F912D112492959F70905D21E02FB95C
:100D7000779BFECF9FB9779BFECF909162009860E2
:100D80009093620090916200977F9093620099E245
:100D9000899F912D112492959F70382F24E6929F60
:100DA000301911242DEC329F912D11249695969592
:100DB0009695905D21E02FB9779BFECF9FB9779BE9
:100DC000FECF9091620098609093620090916200D3
:100DD000977F90936200AFCF87FF0C94820691E0DB
:100DE0009FB9779BFECF9DE29FB9779BFECF9091F5
:100DF000620098609093620090916200977F909358
:100E0000620095ED9A95F1F7000081950C948206A9
:100E10001FB8779BFECF8EE08FB9779BFECF809176
:100E2000620088608093620080916200877F809377
:100E3000620008951FB8779BFECF8CE08FB9779B37
:100E4000FECF809162008860809362008091620092
:100E5000877F8093620008951FB8779BFECF8EE155
:100E60008FB9779BFECF809162008860809362008B
:100E700080916200877F8093620008951FB8779BFE
:100E8000FECF88E18FB9779BFECF809162008860AA
:100E90008093620080916200877F80936200089552
:100EA000E2E6F0E08081886080838081877F8083B4
:100EB00008951FB8779BFECF81E08FB9779BFECF57
:100EC0008091620088608093620080916200877FD9
:100ED000809362008FE19CE10197F1F700C0000070
:100EE00008951FB8779BFECF82E08FB9779BFECF26
:100EF0008091620088608093620080916200877FA9
:100F0000809362008FE697E10197F1F700C000003F
:100F100008951FB8779BFECF80EC8FB9779BFECFEB
:100F20008091620088608093620080916200877F78
:100F30008093620008951FB8779BFECF80E88FB939
:100F4000779BFECF809162008860809362008091E1
:100F50006200877F80936200089590E131E020E293
:100F60003FB9779BFECF2FB9779BFECF8091620070
:100F700088608093620080916200877F8093620026
:100F800085ED8A95F1F70000915051F7089591E0B1
:100F90009FB9779BFECF8FB9779BFECF8091620080
:100FA00088608093620080916200877F80936200F6
:100FB0000895FC0140E050E060E071E0DF01A40F23
:100FC000B51F8C917FB9779BFECF8FB9779BFECFF2
:100FD0009091620098609093620090916200977F78
:100FE0009093620085ED8A95F1F700006F5F462FC0
:100FF00050E0DF010D900020E9F79D012E1B3F0B13
:101000002250310924173507C8F608958FEF99EF5C
:101010000197F1F700C0000088E0809361001FB8DD
:10102000779BFECF80E38FB9779BFECF80916200E4
:1010300088608093620080916200877F8093620065
:101040008FE59DE60197F1F700C000001FB8779B80
:10105000FECF80E38FB9779BFECF809162008860DE
:101060008093620080916200877F809362008FE5A9
:101070009DE60197F1F700C000001FB8779BFECFF7
:1010800080E38FB9779BFECF809162008860809368
:10109000620080916200877F809362008FE59DE609
:1010A0000197F1F700C000001FB8779BFECF88E3DF
:1010B0008FB9779BFECF8091620088608093620039
:1010C00080916200877F809362008FE19EE40197A8
:1010D000F1F700C000001FB8779BFECF88E08FB902
:1010E000779BFECF80916200886080936200809140
:1010F0006200877F809362008FE19EE40197F1F7A1
:1011000000C000001FB8779BFECF81E08FB9779BAE
:10111000FECF8091620088608093620080916200BF
:10112000877F809362008FE19EE40197F1F700C012
:1011300000001FB8779BFECF86E08FB9779BFECF6C
:101140008091620088608093620080916200877F56
:10115000809362008FE19EE40197F1F700C00000E8
:101160001FB8779BFECF8CE08FB9779BFECF809125
:10117000620088608093620080916200877F809324
:1011800062008FE19EE40197F1F700C0000008952E
:101190004F925F926F927F928F929F92AF92BF9287
:1011A000CF92DF92EF92FF920F931F93CF93DF9333
:1011B000CDB7DEB769970FB6F894DEBF0FBECDBFCF
:1011C000142F422E5E2C002379F06B017C01CC247D
:1011D000F7FCC394DD24EE24FF240C2D6B017C016D
:1011E00097FDA3C0C701B601442009F496C09E0133
:1011F0002F5F3F4F5901490166246A94640C712C9A
:101200003FEF631A730A6A0C7B1C2AE030E040E06F
:1012100050E00E94EE0CE62F2A8B3B8B4C8B5D8BB3
:101220006A897B898C899D8920E32E0FF4012193A3
:101230004F016E167F0649F799249394940CF5019B
:10124000E40DF11D2EE220832AE030E040E050E082
:101250000E94EE0CE62F2A8B3B8B4C8B5D8B6E8BAA
:101260007F8B888F998F6A897B898C899D8931E0F2
:10127000390DD501A90DB11DE05DEC93932E6115DB
:1012800071058105910501F7112361F051104BC0E3
:1012900090E2311738F4F501E30FF11D90833F5FC1
:1012A0001313F9CF002331F0F501E30FF11D9DE297
:1012B00090833F5F21E03150F501E30FF11D9081F4
:1012C0002FB9779BFECF9FB9779BFECF909162009D
:1012D00098609093620090916200977F9093620073
:1012E00085ED8A95F1F700003111E5CF69960FB6CB
:1012F000F894DEBF0FBECDBFDF91CF911F910F914C
:10130000FF90EF90DF90CF90BF90AF909F908F9025
:101310007F906F905F904F900895912C9E012F5F6A
:101320003F4F590191CF90E3B4CFF094E094D09423
:10133000C094C11CD11CE11CF11C54CF5F926F9270
:101340007F928F929F92AF92BF92CF92DF92EF9255
:10135000FF920F931F93CF93DF93CDB7DEB76197C3
:101360000FB6F894DEBF0FBECDBF5C01962E542E93
:10137000622E8B2C881C8824881C782C9C0197FD5D
:101380009DC0552009F48EC08E010F5F1F4F78015C
:10139000CC24CA94C50CD12C8FEFC81AD80AC00E21
:1013A000D11E6AE070E0C9010E94DA0C462F242F9A
:1013B000372F805DF70181937F01EC15FD0589F7DB
:1013C000FF24F394F50CF801E50DF11D8EE2808306
:1013D00001C0F92E6AE070E0C9010E94DA0C462FC4
:1013E000242F372F91E09F0DF801EF0DF11D805D47
:1013F00080832115310569F7611059C0B7FC63C0BE
:101400009920B1F0682D70E080E2292F30E0492D5D
:1014100050E0461B570B2417350754F49F5FF80123
:10142000E20FF31F8083292F30E024173507B4F330
:10143000772031F0F801E90FF11D8DE280839F5F85
:1014400021E09150F801E90FF11D80812FB9779BC0
:10145000FECF8FB9779BFECF80916200886080932A
:10146000620080916200877F80936200F5EDFA95BB
:10147000F1F700009111E5CF61960FB6F894DEBF49
:101480000FBECDBFDF91CF911F910F91FF90EF90D5
:10149000DF90CF90BF90AF909F908F907F906F9094
:1014A0005F900895F12C8E010F5F1F4F93CF99200D
:1014B00009F4BECF682D70E080E3A7CF2227332741
:1014C000281B390B5ECFF394F394F801E90FF11D5B
:1014D0008DE28083992059F02F2D30E0492D50E086
:1014E0002417350724F49F2D712C80E297CF9F2D70
:1014F000A7CF1F920F920FB60F9211240BB60F9227
:101500002F933F938F939F93AF93BF93EF93FF934B
:10151000E09171008E2F90E0FC013897E135F105E4
:10152000B0F0809171008093090284E08093740090
:10153000FF91EF91BF91AF919F918F913F912F912B
:101540000F900BBE0F900FBE0F901F901895EA5B87
:10155000FF4F0C940D0D80919801E0910A02F091DB
:101560000B02E80FF11D80917300808384E9809362
:101570007400DECF80910C0280937300109298016A
:1015800085E880937400D4CF8091980190910D02EA
:10159000891760F7E0910A02F0910B0291E0980F31
:1015A00090939801E80FF11D80818093730085E886
:1015B00080937400BDCF85EA80937400B9CF2091E9
:1015C000980180910D0230E090E0019728173907CB
:1015D000DCF485EC80937400ABCFE0910A02F091CB
:1015E0000B028091980121E0280F20939801E80FC9
:1015F000F11D80917300808380910D0230E090E0B6
:101600000197281739072CF385E88093740090CF51
:1016100080917400817008959091740090FDFCCFCA
:101620008E7F80930C0270930B0260930A024093AA
:101630000D0285EA8093740008959091740090FDE6
:10164000FCCF816080930C0270930B0260930A02BE
:1016500040930D0285EA8093740008958FEF809384
:101660007300109271008CE08093700008955D9B70
:10167000FECF8CB95D9BFECF0895FC01908199232C
:1016800049F031965D9BFECF9CB95D9BFECF919159
:101690009111F8CF08959C01FC014491442369F015
:1016A0000196F90124915D9BFECF2CB95D9BFECF85
:1016B0009C01FC0144914111F3CF08958AB18869DE
:1016C0008AB9E5E9F0E0808186608083109290001D
:1016D00087E689B9089580E89EE302C0019721F06A
:1016E0005F9BFCCF8CB1089580E0089580E0089561
:1016F000CF93DF9300D0CDB7DEB70E941604CE01A2
:10170000019680935E0242E06EE572E080E90E94FD
:101710000C0B8FE39FE10197F1F700C000000E94DE
:101720005907E12CCC24C394D12C00E0612CF12C7E
:1017300010E0A4E6AA2EB4ECBB2E9924939477244F
:101740007A9480EF882E14C083BC8091810182300E
:1017500009F44DC0E1104DC089819A810E945F0358
:10176000802F962D0E94E2008F2D0E949101F82E6D
:10177000812F0E94D201182F813009F4AAC0823033
:1017800009F4C8C0833009F459C0843009F47AC020
:10179000853009F4D6C0883009F4DBC040917F0160
:1017A000509180019A01A9E8B8E80E94160D96951B
:1017B0008795929582958F7089279F708927B89E0B
:1017C000400D112450E08A9D400D511D1124042F1D
:1017D000652E10E085B185B1843108F4B5CF85B1AF
:1017E000809583BD80918101823009F0B3CF9092C2
:1017F0007D0180917F0190918001C816D90639F052
:1018000080918101823019F0EE24E394A5CF80917C
:1018100081018130C9F31130B9F30E942B039093F9
:101820008300809382000E94D80390927C011092E2
:10183000830010928200EE24E3948ECF90927D017B
:10184000809179018B7F8093790110927C01202F08
:10185000362DA9E8B8E80E94160D969587959295C1
:1018600082958F7089279F708927B89E000D11245B
:1018700010E08A9D000D111D1124612EEE24E394C9
:1018800010E0A8CFEE2051F08EB51EBC8EB51EBC68
:1018900010928300109282009092810110927C013C
:1018A000202F362DA9E8B8E80E94160D9695879549
:1018B000929582958F7089279F708927B89E000D19
:1018C000112410E08A9D000D111D1124612E10E0DD
:1018D00081CF80937C0180E00E94E3026C019C0137
:1018E000A9E8B8E80E94160D9C0136952795329517
:1018F00022952F7023273F7023279C2DB29E900D99
:101900001124892F90E02A9D800D911D1124082F0C
:10191000692E60CF10927D01109281017092790141
:1019200010927C0110928300109282000E9459074D
:1019300000E0612CE12CCC24C394D12CF12C10E0DC
:1019400049CF80E00E94E3029093800180937F0161
:10195000A5CF0E940504202F362DA9E8B8E80E94E3
:10196000160D9C0136952795329522952F702327C9
:101970003F702327B29E000D1124802F90E02A9DF6
:10198000800D911D1124082F692E24CFAA1BBB1B8B
:1019900051E107C0AA1FBB1FA617B70710F0A61B6F
:1019A000B70B881F991F5A95A9F780959095BC0190
:1019B000CD01089597FB072E16F4009407D077FD0C
:1019C00009D00E94C60C07FC05D03EF49095819585
:1019D0009F4F0895709561957F4F0895052E97FB51
:1019E0001EF400940E94050D57FD07D00E94250D9E
:1019F00007FC03D04EF40C94050D5095409530959E
:101A000021953F4F4F4F5F4F08959095809570956A
:101A100061957F4F8F4F9F4F0895EE0FFF1F00245A
:101A2000001C0BBE0790F691E02D0994A29FB00117
:101A3000B39FC001A39F700D811D1124911DB29F02
:101A4000700D811D1124911D0895A1E21A2EAA1B6B
:101A5000BB1BFD010DC0AA1FBB1FEE1FFF1FA2175E
:101A6000B307E407F50720F0A21BB30BE40BF50B5B
:101A7000661F771F881F991F1A9469F760957095E4
:101A8000809590959B01AC01BD01CF010895BB27C6
:101A90004A3031F4992322F4BDE2909581959F4F0D
:101AA0000C94530DBB27FB015527AA27880F991FBC
:101AB000AA1FA41710F0A41B83955051B9F7A05D7D
:101AC000AA3308F0A95DA193009779F7B111B193FA
:101AD0001192CB010C946C0DDC01FC01672F71910C
:101AE0007723E1F7329704C07C916D937083629104
:0C1AF000AE17BF07C8F30895F894FFCFAD
:101AFC00E0009F050F200000000000000000000027
:101B0C0000000000000000000000000000000000C9
:101B1C000000000000000000000000000000002099
:101B2C0000000000000000000000000000000000A9
:101B3C000000000000000000000000000000000099
:101B4C000000000000000000000A01C0F9A4B099D8
:101B5C009283F880988883C6A1868EC0F9A4B09928
:0C1B6C009283F880987F04FFFFFFFFFFCA
:00000001FF
