:100000000C9425010C9444010C9444010C9444017B
:100010000C9444010C9444010C9444010C9444014C
:100020000C9444010C9444010C9444010C9444013C
:100030000C9496080C9444010C9444010C944401D3
:100040000C9450080C9444010C9444010C94440109
:100050000C9444010C9444010C9444010C9444010C
:100060000C9444010C9444010C9444010C944401FC
:100070000C9444010C9444010C9444010C944401EC
:100080000C9444010C943B0E0C9444017A018401BD
:100090008E019801A301AE01B901660170010F0341
:1000A000070302032C031F0327031703E002D802F0
:1000B000D302CB023403E802BE02A6025403FD02BF
:1000C000F502ED027403AE026403B60281034C0331
:1000D0006C03C60244033C035C03A1026F02670287
:1000E000770279035A0252027C02350299026202B7
:1000F00045023D0289024D0281022D021302910246
:100100000302FB01200218022502F6010B02DE01A8
:10011000EE01D901D101C901C401E601E5043505AB
:10012000D5040505B504C504B504C5044505E504B5
:100130003505D5040505F504A504F504A5048D05CC
:100140001906810599068105F905E905A5049D05AE
:10015000A504CD0515056906B504490655055906DA
:1001600065057906D90525051505AD057505E5046F
:100170003505D5040505B504C504B504C504450514
:10018000E50409062505D504F504A504F504A50430
:100190008D052906BD05450539069D0555056505ED
:1001A00015052505890675057C0E530E530E530E55
:1001B000530E530E530E530E7C0E530E530E530E0E
:1001C000530E530E530E530E860E530E530E530EF4
:1001D000530E530E530E530E530E530E530E530E17
:1001E000530E530E530E530E860E530E530E530ED4
:1001F000530E530E530E530E530E530E530E530EF7
:10020000530E530E530E530E9D0E530E530E530E9C
:10021000530E530E530E530EA10E530E530E530E88
:10022000530E530E530E530E530E530E530E530EC6
:10023000530E530E530E530EAF0E530E530E530E5A
:10024000530E530E530E530E6D0E11241FBECFEFDF
:10025000D0E1DEBFCDBF11E0A0E0B1E0E2E2F2E22A
:1002600000E00BBF02C007900D92AE32B107D9F784
:1002700021E0AEE2B1E001C01D92A63DB207E1F778
:100280000E943A0F0C940F110C9400000F931F93CF
:10029000929810924C0110924B0130E030934A0139
:1002A00020934901042F10E00930110528F01BBCF0
:1002B0001ABC1F910F910895F801EA5BFF4F082EB9
:1002C000000C990BAA0BBB0B0C94D510FC01E1544C
:1002D000F109E730F10568F7E15BFF4F0C94D510A9
:1002E000FC01E154F109E730F10518F7EA5AFF4F34
:1002F0000C94D510FC01E154F109E730F105C8F682
:10030000E35AFF4F0C94D510FC01E154F109E7309A
:10031000F10578F6EC59FF4F0C94D510FC01E1542F
:10032000F109E730F10528F6E559FF4F0C94D51097
:10033000FC01E154F109E730F10508F0BACFEE58BD
:10034000FF4F0C94D510FC01E154F109E730F105A1
:1003500008F0AFCFE758FF4F0C94D510FC01E154E3
:10036000F109E730F10508F0A4CFE058FF4F0C94F5
:10037000D510FC01E154F109E730F10508F099CFFF
:10038000E957FF4F0C94D51088E590E09BBD8ABDDE
:1003900090CF662309F40FC283E690E09BBD8ABD2F
:1003A00088CF662309F411C28FE690E09BBD8ABD19
:1003B00080CF86E790E09BBD8ABD7BCF662309F4A2
:1003C000FFC18AE490E09BBD8ABD73CF662309F428
:1003D00001C283E590E09BBD8ABD6BCF662309F423
:1003E000B8C182E490E09BBD8ABD63CF81EB90E011
:1003F0009BBD8ABD5ECF662309F4D3C185E890E03A
:100400009BBD8ABD56CF662309F4C1C185E990E042
:100410009BBD8ABD4ECF662309F4BEC187EA90E03A
:100420009BBD8ABD46CF84E691E09BBD8ABD41CF8E
:10043000662309F4BBC180EE90E09BBD8ABD39CF35
:100440008DEE90E09BBD8ABD34CF662309F48BC14D
:1004500087EC90E09BBD8ABD2CCF662309F474C164
:1004600080E991E09BBD8ABD24CF662309F4CBC10E
:1004700084E893E09BBD8ABD1CCF662309F4AFC11D
:100480008BE291E09BBD8ABD14CF662309F4B1C114
:1004900082EA92E09BBD8ABD0CCF8CED91E09BBDC2
:1004A0008ABD07CF662309F459C187E192E09BBD5D
:1004B0008ABDFFCE662309F4B0C188E592E09BBDFA
:1004C0008ABDF7CE8AEC92E09BBD8ABDF2CE662350
:1004D00009F435C186E496E09BBD8ABDEACE662369
:1004E00009F482C18AE097E09BBD8ABDE2CE86E92D
:1004F00095E09BBD8ABDDDCE8AEB93E09BBD8ABDB6
:10050000D8CE662309F47AC181EC91E09BBD8ABD07
:10051000D0CE662309F47CC18BE091E09BBD8ABDFF
:10052000C8CE662309F47EC180E591E09BBD8ABDFB
:10053000C0CE662309F4ADC182E293E09BBD8ABDC3
:10054000B8CE86E797E09BBD8ABDB3CE662309F49B
:100550000FC18EEC92E19BBD8ABDABCE662309F440
:100560007AC18DE195E19BBD8ABDA3CE662309F4D6
:10057000DCC080E698E09BBD8ABD9BCE662309F473
:1005800092C180E190E09BBD8ABD93CE8EE29BE05C
:100590009BBD8ABD8ECE662309F449C18BE190E0F4
:1005A0009BBD8ABD86CE8CE190E09BBD8ABD81CE8D
:1005B000662309F441C187E090E09BBD8ABD79CEF6
:1005C000662309F4DAC08BE090E09BBD8ABD71CE52
:1005D00082E190E09BBD8ABD6CCE662309F49BC08E
:1005E00089E199E19BBD8ABD64CE662309F429C1E6
:1005F00080E39CE19BBD8ABD5CCE8CED9DE19BBD03
:100600008ABD57CE8AE390E09BBD8ABD52CE662359
:1006100009F435C180E290E09BBD8ABD4ACE6623D5
:1006200009F432C184E290E09BBD8ABD42CE6623CC
:1006300009F476C089E290E09BBD8ABD3ACE66237C
:1006400009F478C081E390E09BBD8ABD32CE8BE295
:1006500090E09BBD8ABD2DCE662309F493C087E34D
:1006600090E09BBD8ABD25CE662309F44FC088E18A
:1006700090E09BBD8ABD1DCE662309F4F6C082EBD7
:1006800094E09BBD8ABD15CE662309F416C18DE8A2
:100690009AE09BBD8ABD0DCE662309F4D7C086E1E2
:1006A0009EE09BBD8ABD05CE662309F4F7C080ECB1
:1006B00090E19BBD8ABDFDCD662309F4D1C08FE2D8
:1006C00094E09BBD8ABDF5CD662309F4F1C087E6B1
:1006D00099E09BBD8ABDEDCD662309F4CBC08DE8C2
:1006E0009CE09BBD8ABDE5CD8DE596E19BBD8ABDB5
:1006F000E0CD662309F4E6C086E495E09BBD8ABDA3
:10070000D8CD8DEE9EE09BBD8ABDD3CD85E190E036
:100710009BBD8ABDCECD82EB97E19BBD8ABDC9CD85
:1007200086E290E09BBD8ABDC4CD87EE97E09BBD7D
:100730008ABDBFCD8EE290E09BBD8ABDBACD8BEE67
:1007400095E09BBD8ABDB5CD8AE791E09BBD8ABD92
:10075000B0CD8EE390E09BBD8ABDABCD89EF91E03B
:100760009BBD8ABDA6CD8CEB90E09BBD8ABDA1CD83
:1007700080EC91E19BBD8ABD9CCD89E090E09BBD62
:100780008ABD97CD84E390E09BBD8ABD92CD8DE874
:1007900090E09BBD8ABD8DCD8EE990E09BBD8ABD6A
:1007A00088CD8DE790E09BBD8ABD83CD83ED90E041
:1007B0009BBD8ABD7ECD8DE590E09BBD8ABD79CD88
:1007C00086E490E09BBD8ABD74CD89E690E09BBD38
:1007D0008ABD6FCD8EE490E09BBD8ABD6ACD8BE172
:1007E00091E09BBD8ABD65CD85EA96E09BBD8ABD43
:1007F00060CD8CE792E09BBD8ABD5BCD88EA91E03D
:100800009BBD8ABD56CD82E593E09BBD8ABD51CD8F
:100810008CEF90E09BBD8ABD4CCD87E392E09BBD01
:100820008ABD47CD8DE391E09BBD8ABD42CD89E174
:1008300090E09BBD8ABD3DCD85E090E09BBD8ABD2B
:1008400038CD8AE99AE19BBD8ABD33CD8CE49DE029
:100850009BBD8ABD2ECD8DEE93E19BBD8ABD29CD7A
:1008600083EF93E09BBD8ABD24CD8FE694E09BBDD2
:100870008ABD1FCD88ED9BE09BBD8ABD1ACD8EE160
:1008800090E09BBD8ABD15CD82E290E09BBD8ABD04
:1008900010CD85EF92E09BBD8ABD0BCD80ED9FE032
:1008A0009BBD8ABD06CD8DE090E09BBD8ABD01CD8C
:1008B0008FED98E09BBD8ABDFCCC86EF99E09BBD97
:1008C0008ABDF7CC8AEF94E09BBD8ABDF2CC929AA8
:1008D00010924C0110924B0190E090934A0180934A
:1008E00049010895109247018EB58C7F8EBD929A72
:1008F000089587B7806187BF1FBC8EB588608EBDA5
:1009000010927A0081E390E09BBD8ABD109247016E
:100910008EB58C7F8EBD929A10924C0110924B0135
:1009200010924A0110924901109247011092480119
:1009300008958634910520F08FEF80934701089544
:10094000FC01E257FF4F0C94D510929810924C0185
:1009500010924B0182E090E090934A01809349010C
:100960008BE191E09BBD8ABD0895929810924C0155
:1009700010924B0186E090E090934A0180934901E8
:100980008BE191E09BBD8ABD0895929810924C0135
:1009900010924B0182E090E090934A0180934901CC
:1009A0008BE291E09BBD8ABD0895929810924C0114
:1009B00010924B0188E090E090934A0180934901A6
:1009C00088EA91E09BBD8ABD0895929810924C01EF
:1009D00010924B0188E090E090934A018093490186
:1009E00084E691E09BBD8ABD0895929810924C01D7
:1009F00010924B0186E090E090934A018093490168
:100A00008BE091E09BBD8ABD0895929810924C01B5
:100A100010924B0188E090E090934A018093490145
:100A20008CED91E09BBD8ABD0895929810924C0187
:100A300010924B0188E090E090934A018093490125
:100A40008BE191E09BBD8ABD0895929810924C0174
:100A500010924B0188E090E090934A018093490105
:100A60008DE391E09BBD8ABD0895929810924C0150
:100A700010924B0188E090E090934A0180934901E5
:100A80008AE791E09BBD8ABD0895929810924C012F
:100A900010924B0180E190E090934A0180934901CC
:100AA0008BE191E09BBD8ABD0895929810924C0114
:100AB00010924B0184E090E090934A0180934901A9
:100AC0008DEE90E09BBD8ABD0895929810924C01E6
:100AD00010924B0184E090E090934A018093490189
:100AE00083ED90E09BBD8ABD0895929A10924C01CF
:100AF00010924B0188E090E090934A018093490165
:100B00000895929A10924C0110924B0181E090E06E
:100B100090934A01809349010895929810924C0154
:100B200010924B0180E190E090934A01809349013B
:100B30008BE091E09BBD8ABD0895929810924C0184
:100B400010924B0188E090E090934A018093490114
:100B50008BE091E09BBD8ABD0895929810924C0164
:100B600010924B0188E190E090934A0180934901F3
:100B70008DE391E09BBD8ABD0895929810924C013F
:100B800010924B0180E190E090934A0180934901DB
:100B900083ED90E09BBD8ABD0895929A10924C011E
:100BA00010924B0182E090E090934A0180934901BA
:100BB0000895929810924C0110924B0184E090E0BD
:100BC00090934A01809349018BE191E09BBD8ABDDE
:100BD0000895929810924C0110924B0186E090E09B
:100BE00090934A01809349018DE391E09BBD8ABDBA
:100BF0000895929810924C0110924B0184E090E07D
:100C000090934A018093490180E591E09BBD8ABDA4
:100C10000895929810924C0110924B0188E090E058
:100C200090934A018093490180E591E09BBD8ABD84
:100C30000895929810924C0110924B0183E090E03D
:100C400090934A01809349018DE391E09BBD8ABD59
:100C50000895929810924C0110924B0180E190E01F
:100C600090934A018093490188EA91E09BBD8ABD37
:100C70000895929810924C0110924B0180E190E0FF
:100C800090934A01809349018DEE90E09BBD8ABD0F
:100C90000895929810924C0110924B0182E090E0DE
:100CA00090934A01809349018BE091E09BBD8ABDFE
:100CB0000895929810924C0110924B0184E090E0BC
:100CC00090934A018093490180EE90E09BBD8ABDDC
:100CD0000895929810924C0110924B0184E090E09C
:100CE00090934A01809349018BE291E09BBD8ABDBC
:100CF0000895929810924C0110924B0188E090E078
:100D000090934A01809349018CEF90E09BBD8ABD8E
:100D10000895929810924C0110924B0188E190E056
:100D200090934A018093490184E691E09BBD8ABD7E
:100D30000895929810924C0110924B0187E090E038
:100D400090934A01809349018DE391E09BBD8ABD58
:100D50000895862F90E00C949904109247018EB567
:100D600083608EBD929860914701809148010C94F8
:100D7000A906C7988FB9779BFECF13B88FEF83B9B9
:100D80008FB190E00895482FE82FF0E099B3EE0F6F
:100D9000FF1FEB5CFE4F20813181220F331F306E2D
:100DA000892F90E002C0959587954A95E2F781706A
:100DB0009927282B392B3183208381E02115304F4F
:100DC00009F080E008950F931F93CF93DF938C0178
:100DD00030910501E32FF0E0EF01219721E0C817E2
:100DE000D90760F4BF010E948E10CB012F5F253020
:100DF000B1F7DF91CF911F910F9108952330A1F0AA
:100E0000243009F455C02230C1F1F801E95FFE4FEA
:100E10008081809327018091070180932601809330
:100E2000240180932301E5CFC801BF010E948E10E9
:100E3000DC01A95FBE4F8C9180932701CB01BF01DC
:100E40000E948E10FC01E95FFE4F80818093260195
:100E5000339FB0011124C8010E948E10FB01E95F8D
:100E6000FE4F8081809324018091070180932301AC
:100E7000DF91CF911F910F910895C801BF010E948A
:100E80008E10FC01E95FFE4F808180932701FB01FA
:100E9000E95FFE4F80818093260180910701809356
:100EA000240180932301DF91CF911F910F91089529
:100EB000C801BF010E948E10DC01A95FBE4F8C915A
:100EC00080932701CB01BF010E948E10DC01A95F36
:100ED000BE4F8C9180932601339F90011124C8014D
:100EE000B9010E948E10CB01BF010E948E10DC015F
:100EF000A95FBE4F8C9180932401E29FB001E39FD4
:100F0000700DF29F700D1124C8010E948E10FB011C
:100F1000E95FFE4F808180932301DF91CF911F9184
:100F20000F9108958230C9F188F4882381F18130CE
:100F3000F1F497E198BB909126019BBBEFE9FFE0AC
:100F40003197F1F700C000008F5F08958330C9F03A
:100F5000843069F487E488BB809123018BBB8FE9DF
:100F60009FE00197F1F700C0000080E00895EFE9ED
:100F7000FFE03197F1F700C00000843029F780E0EE
:100F8000089597E398BB909124019BBBD7CF97E03E
:100F900098BB909127019BBBD1CF97E298BB9091D2
:100FA00025019BBBCBCF1ABA9FEF9BBB90E798BBA9
:100FB00095E39A95F1F70000E5E3F1E060E070E079
:100FC000A1E0B0E099B320813181220F331FA90144
:100FD000506E292F30E0062E02C0359527950A94D1
:100FE000E2F721703327242B352B219331932115E0
:100FF000304F39F49D01062E01C0220F0A94EAF702
:1010000082276F5F7F4F68307105E1F69FEF9ABBD3
:101010000895482F282F392FA9E8B8E80E94DE103C
:101020009C0136952795329522952F7023273F7086
:1010300023278CE3289F40191124842F90E044E655
:10104000249F800D911D1124089590910401292F52
:10105000237071F4282F23702130E9F09C7091F4F3
:10106000982F9C709430B9F08093040180E008952B
:101070002130A1F7282F237089F78F708093040106
:101080008FEF0895943081F7982F9C70B1F380937F
:10109000040180E008958F708093040181E0089539
:1010A0001F920F920FB60F9211242F933F938F939D
:1010B0009F932091250183E08227809325018091D1
:1010C00034018C33A0F490913001913029F190914A
:1010D00033018F5F809334019A30C1F09F918F91DB
:1010E0003F912F910F900FBE0F901F9018958091F8
:1010F0002E0190912F01019690932F0180932E0144
:1011000010923401909133019A3041F782E080933C
:10111000300110923301E2CF909133019F5F9093A1
:10112000330137E0232720932501D3CF1F920F925D
:101130000FB60F9211240BB60F922F933F934F933C
:101140005F936F937F938F939F93AF93BF93EF932F
:10115000FF9382B3805882BB20914B0130914C01A8
:101160008091490190914A012817390758F08091E0
:1011700047018F5F8093470160914701809148014B
:101180000E94A906FF91EF91BF91AF919F918F911E
:101190007F916F915F914F913F912F910F900BBE77
:1011A0000F900FBE0F901F901895CF93C82FC79820
:1011B0001FB8779BFECF13B88FEF83B98FB10E9412
:1011C0002508482F2091310130913201C901840F47
:1011D000911D47FD9A959093320180933101C11181
:1011E0001BC02FE935E030930301209302010097E3
:1011F00021F44F3FC1F0CF91089520910201309129
:10120000030128173907B8F7109232011092310103
:1012100080E090E0CF9108952BE033E0309303011C
:1012200020930201E4CF80910201909103019093F9
:10123000320180933101CF910895C7981FB8779BF1
:10124000FECF13B88FEF83B98FB10E942508482FC6
:101250002091000130910101C901840F911D47FDCA
:101260009A959093010180930001009719F44F3FE4
:1012700061F008958F3F910589F080F0109201018F
:101280001092000180E090E008958FEF90E090933D
:101290000101809300018EEF91E00895880F991F5E
:1012A00008958FEF8ABB87BB8F9A82B1806682B91F
:1012B00012BA80E188BB80B7886080BF8DB180653D
:1012C0008DB981E08EB987B7816187BF83B78560AB
:1012D00083BF1FBC8EB588608EBD10927A00EBE88C
:1012E000F0E0808189608083EAE8F0E080818960B5
:1012F00080838FE09FE09BBD8ABD10928300109297
:10130000820085B58A6685BD86B1876086B93E9ABA
:101310003D9A359A379A369A0E94C80B0E947904F2
:101320007894089591E0811101C090E09FB9779B76
:10133000FECF6FB9779BFECF80916200886080936B
:10134000620080916200877F8093620008952091FF
:101350004501820F911DFC01808191E09FB9779B2F
:10136000FECF8FB9779BFECF80916200886080931B
:10137000620080916200877F8093620080914501C6
:101380008F5F809345018031D9F0803209F0089554
:1013900085ED8A95F1F700001FB8779BFECF80E8B6
:1013A0008FB9779BFECF8091620088608093620046
:1013B00080916200877F80936200109245010895BA
:1013C000F5EDFA95F1F700001FB8779BFECF80ECA2
:1013D0008FB9779BFECF8091620088608093620016
:1013E00080916200877F8093620080914501CDCF1C
:1013F000660F660F660F605C1FB8779BFECF6FB9F4
:10140000779BFECF2091620028602093620020919C
:101410006200277F2093620025ED2A95F1F70000F6
:10142000FC019C01285F3F4F91E081919FB9779B20
:10143000FECF8FB9779BFECF80916200886080934A
:10144000620080916200877F8093620085ED8A95BB
:10145000F1F70000E217F30741F7089590E4899F40
:10146000600D1124605C1FB8779BFECF6FB9779B2E
:10147000FECF80916200886080936200809162005C
:10148000877F809362000895811113C081E08FB936
:10149000779BFECF80E38FB9779BFECF8091620070
:1014A00088608093620080916200877F80936200F1
:1014B00008958436B0F48A3060F591E09FB9779B47
:1014C000FECF9DEC899F912D11249695969596952A
:1014D0002AE0929F80191124805D8FB9779BFECFFF
:1014E000DDCF99E2899F912D112492959F70905D97
:1014F00021E02FB9779BFECF9FB9779BFECF9091CC
:10150000620098609093620090916200977F909340
:10151000620099E2899F912D112492959F70382F36
:1015200024E6929F301911242DEC329F912D112425
:10153000969596959695905D21E02FB9779BFECF75
:101540009FB9779BFECF9091620098609093620064
:1015500090916200977F90936200AFCF87FF0C94C9
:10156000440A91E09FB9779BFECF9DE29FB9779B9C
:10157000FECF90916200986090936200909162001B
:10158000977F9093620095ED9A95F1F70000819511
:101590000C94440A1FB8779BFECF8EE08FB9779BDF
:1015A000FECF80916200886080936200809162002B
:1015B000877F8093620008951FB8779BFECF8CE0F1
:1015C0008FB9779BFECF8091620088608093620024
:1015D00080916200877F8093620008951FB8779B97
:1015E000FECF8EE18FB9779BFECF8091620088603D
:1015F0008093620080916200877F809362000895EB
:101600001FB8779BFECF88E18FB9779BFECF809183
:10161000620088608093620080916200877F80937F
:1016200062000895E2E6F0E0808188608083808136
:10163000877F808308951FB8779BFECF81E08FB9A5
:10164000779BFECF809162008860809362008091DA
:101650006200877F809362008FE19CE10197F1F740
:1016600000C0000008951FB8779BFECF82E08FB9BD
:10167000779BFECF809162008860809362008091AA
:101680006200877F809362008FE697E10197F1F710
:1016900000C0000008951FB8779BFECF80EC8FB983
:1016A000779BFECF8091620088608093620080917A
:1016B0006200877F8093620008951FB8779BFECFFA
:1016C00080E88FB9779BFECF80916200886080931D
:1016D000620080916200877F80936200089590E1AC
:1016E00031E020E23FB9779BFECF2FB9779BFECF49
:1016F0008091620088608093620080916200877FA1
:101700008093620085ED8A95F1F70000915051F7C2
:10171000089591E09FB9779BFECF8FB9779BFECF5D
:101720008091620088608093620080916200877F70
:10173000809362000895FC0140E050E060E071E0B9
:10174000DF01A40FB51F8C917FB9779BFECF8FB9B6
:10175000779BFECF90916200986090936200909189
:101760006200977F9093620085ED8A95F1F7000003
:101770006F5F462F50E0DF010D900020E9F79D01DB
:101780002E1B3F0B2250310924173507C8F6089548
:101790008FEF99EF0197F1F700C0000088E0809388
:1017A00061001FB8779BFECF80E38FB9779BFECF98
:1017B0008091620088608093620080916200877FE0
:1017C000809362008FE59DE60197F1F700C000006D
:1017D0001FB8779BFECF80E38FB9779BFECF8091B8
:1017E000620088608093620080916200877F8093AE
:1017F00062008FE59DE60197F1F700C000001FB879
:10180000779BFECF80E38FB9779BFECF80916200FC
:1018100088608093620080916200877F809362007D
:101820008FE59DE60197F1F700C000001FB8779B98
:10183000FECF88E38FB9779BFECF809162008860EE
:101840008093620080916200877F809362008FE1C5
:101850009EE40197F1F700C000001FB8779BFECF10
:1018600088E08FB9779BFECF80916200886080937B
:10187000620080916200877F809362008FE19EE426
:101880000197F1F700C000001FB8779BFECF81E001
:101890008FB9779BFECF8091620088608093620051
:1018A00080916200877F809362008FE19EE40197C0
:1018B000F1F700C000001FB8779BFECF86E08FB91C
:1018C000779BFECF80916200886080936200809158
:1018D0006200877F809362008FE19EE40197F1F7B9
:1018E00000C000001FB8779BFECF8CE08FB9779BBC
:1018F000FECF8091620088608093620080916200D8
:10190000877F809362008FE19EE40197F1F700C02A
:10191000000008954F925F926F927F928F929F92F4
:10192000AF92BF92CF92DF92EF92FF920F931F93ED
:10193000CF93DF93CDB7DEB769970FB6F894DEBFCC
:101940000FBECDBF142F422E5E2C002379F06B0109
:101950007C01CC24F7FCC394DD24EE24FF240C2D61
:101960006B017C0197FDA3C0C701B601442009F4B7
:1019700096C09E012F5F3F4F5901490166246A942A
:10198000640C712C3FEF631A730A6A0C7B1C2AE00B
:1019900030E040E050E00E94B610E62F2A8B3B8BEF
:1019A0004C8B5D8B6A897B898C899D8920E32E0F06
:1019B000F40121934F016E167F0649F79924939401
:1019C000940CF501E40DF11D2EE220832AE030E0B5
:1019D00040E050E00E94B610E62F2A8B3B8B4C8BE8
:1019E0005D8B6E8B7F8B888F998F6A897B898C89C1
:1019F0009D8931E0390DD501A90DB11DE05DEC9354
:101A0000932E611571058105910501F7112361F090
:101A100051104BC090E2311738F4F501E30FF11D7E
:101A200090833F5F1313F9CF002331F0F501E30FEB
:101A3000F11D9DE290833F5F21E03150F501E30FFE
:101A4000F11D90812FB9779BFECF9FB9779BFECF79
:101A50009091620098609093620090916200977FED
:101A60009093620085ED8A95F1F700003111E5CF82
:101A700069960FB6F894DEBF0FBECDBFDF91CF9150
:101A80001F910F91FF90EF90DF90CF90BF90AF909C
:101A90009F908F907F906F905F904F900895912CC2
:101AA0009E012F5F3F4F590191CF90E3B4CFF09447
:101AB000E094D094C094C11CD11CE11CF11C54CF03
:101AC0005F926F927F928F929F92AF92BF92CF92CE
:101AD000DF92EF92FF920F931F93CF93DF93CDB7D7
:101AE000DEB761970FB6F894DEBF0FBECDBF5C01C5
:101AF000962E542E622E8B2C881C8824881C782CC1
:101B00009C0197FD9DC0552009F48EC08E010F5F8A
:101B10001F4F7801CC24CA94C50CD12C8FEFC81A62
:101B2000D80AC00ED11E6AE070E0C9010E94A2105E
:101B3000462F242F372F805DF70181937F01EC150D
:101B4000FD0589F7FF24F394F50CF801E50DF11D6F
:101B50008EE2808301C0F92E6AE070E0C9010E9424
:101B6000A210462F242F372F91E09F0DF801EF0D83
:101B7000F11D805D80832115310569F7611059C021
:101B8000B7FC63C09920B1F0682D70E080E2292F86
:101B900030E0492D50E0461B570B2417350754F40D
:101BA0009F5FF801E20FF31F8083292F30E0241795
:101BB0003507B4F3772031F0F801E90FF11D8DE21C
:101BC00080839F5F21E09150F801E90FF11D808132
:101BD0002FB9779BFECF8FB9779BFECF80916200A4
:101BE00088608093620080916200877F80936200AA
:101BF000F5EDFA95F1F700009111E5CF61960FB67A
:101C0000F894DEBF0FBECDBFDF91CF911F910F9132
:101C1000FF90EF90DF90CF90BF90AF909F908F900C
:101C20007F906F905F900895F12C8E010F5F1F4F92
:101C300093CF992009F4BECF682D70E080E3A7CF41
:101C400022273327281B390B5ECFF394F394F80136
:101C5000E90FF11D8DE28083992059F02F2D30E09E
:101C6000492D50E02417350724F49F2D712C80E274
:101C700097CF9F2DA7CF1F920F920FB60F921124CF
:101C80000BB60F922F933F938F939F93AF93BF9376
:101C9000EF93FF93E09171008E2F90E0FC01389755
:101CA000E135F105B0F08091710080937D0184E011
:101CB00080937400FF91EF91BF91AF919F918F91AD
:101CC0003F912F910F900BBE0F900FBE0F901F9062
:101CD0001895EC52FF4F0C94D51080914601E0917D
:101CE0007E01F0917F01E80FF11D809173008083E8
:101CF00084E980937400DECF80918001809373002B
:101D00001092460185E880937400D4CF80914601FB
:101D100090918101891760F7E0917E01F0917F0138
:101D200091E0980F90934601E80FF11D8081809318
:101D3000730085E880937400BDCF85EA80937400BA
:101D4000B9CF209146018091810130E090E0019768
:101D500028173907DCF485EC80937400ABCFE09151
:101D60007E01F0917F018091460121E0280F2093B0
:101D70004601E80FF11D80917300808380918101FD
:101D800030E090E00197281739072CF385E880931D
:101D9000740090CF809174008170089590917400C8
:101DA00090FDFCCF8E7F8093800170937F016093C4
:101DB0007E014093810185EA80937400089590919B
:101DC000740090FDFCCF81608093800170937F014F
:101DD00060937E014093810185EA809374000895A9
:101DE0008FEF80937300109271008CE080937000ED
:101DF00008955D9BFECF8CB95D9BFECF0895FC01DD
:101E00009081992349F031965D9BFECF9CB95D9BF3
:101E1000FECF91919111F8CF08959C01FC0144915E
:101E2000442369F00196F90124915D9BFECF2CB902
:101E30005D9BFECF9C01FC0144914111F3CF0895BD
:101E40008AB188618AB9E5E9F0E0808186608083A3
:101E50001092900080E189B9089580E89EE302C065
:101E6000019721F05F9BFCCF8CB1089580E008952D
:101E700080E008950E945109BB24B39400E0EE2451
:101E8000E394F12CD0E0712C10E0C0E0B4E6CB2E4E
:101E900084ECD82E8824839499249A9490EFA92EC8
:101EA00010C0A3BC80913001823009F449C00111F7
:101EB00047C08D2F972D0E94E306812F0E94920725
:101EC000182F8C2F0E94D307C82F813009F4B1C07E
:101ED000823009F4CDC0833009F4F8C0843009F4AD
:101EE0005AC0853009F482C0883009F4D4C04091CA
:101EF0002E0150912F019A01A9E8B8E80E94DE1046
:101F000096958795929582958F7089279F708927DE
:101F1000D89E400D112450E08C9D400D511D112480
:101F2000D42F752EC0E085B185B1843108F4B9CFC6
:101F300085B1809583BD80913001823009F0B7CFA3
:101F400080912E0190912F01E816F90641F08091C1
:101F50003001823021F0B11013C001E0AACF80918E
:101F600030018130C1F3C130B1F38EB58B608EBDCD
:101F70000E941D099093830080938200BB2069F327
:101F80000E94AD060E941B0B88E291E00E949B0B11
:101F900001E0B12C8ECF002381F18EB51EBC8EB531
:101FA0001EBC1092830010928200809230012D2F6F
:101FB000372DA9E8B8E80E94DE109C0136952795D8
:101FC000329522952F7023273F702327D29ED00D64
:101FD00011248D2F90E02C9D800D911D1124D82F60
:101FE000792EBB24B39401E0C0E09DCF80E00E9435
:101FF000D50890932F0180932E012D2F372DA9E81E
:10200000B8E80E94DE109C013695279532952295FE
:102010002F7023273F702327D29ED00D11248D2FA0
:1020200090E02C9D800D911D1124D82F792EC0E0B9
:102030007ACF80E00E94D5087C019C01A9E8B8E82D
:102040000E94DE109C0136952795329522952F70BF
:1020500023273F7023279E2DD29E900D1124892F78
:1020600090E02C9D800D911D1124D82F792E5BCFEF
:1020700010923001909225011092830010928200FC
:102080000E941B0BD0E0712C00E0EE24E394F12CB5
:1020900010E0C0E048CF2D2F372DA9E8B8E80E9406
:1020A000DE109C0136952795329522952F702327B7
:1020B0003F702327D29ED00D11248D2F90E02C9DB0
:1020C000800D911D1124D82F792E2DCF80912501BF
:1020D0008B7F809325010E941B0B88E291E00E9478
:1020E0009B0B2D2F372DA9E8B8E80E94DE109C012C
:1020F00036952795329522952F7023273F702327F9
:10210000D29ED00D11248D2F90E02C9D800D911D1D
:102110001124D82F792E01E0C0E005CFAA1BBB1BEC
:1021200051E107C0AA1FBB1FA617B70710F0A61BD7
:10213000B70B881F991F5A95A9F780959095BC01F8
:10214000CD01089597FB072E16F4009407D077FD74
:1021500009D00E948E1007FC05D03EF49095819521
:102160009F4F0895709561957F4F0895052E97FBB9
:102170001EF400940E94CD1057FD07D00E94ED1070
:1021800007FC03D04EF40C94CD105095409530953B
:1021900021953F4F4F4F5F4F0895909580957095D3
:1021A00061957F4F8F4F9F4F0895EE0FFF1F0024C3
:1021B000001C0BBE0790F691E02D0994A29FB00180
:1021C000B39FC001A39F700D811D1124911DB29F6B
:1021D000700D811D1124911D0895A1E21A2EAA1BD4
:1021E000BB1BFD010DC0AA1FBB1FEE1FFF1FA217C7
:1021F000B307E407F50720F0A21BB30BE40BF50BC4
:10220000661F771F881F991F1A9469F7609570954C
:10221000809590959B01AC01BD01CF010895F89484
:02222000FFCFEE
:10222200E0009F050F0A01C0F9A4B0999283F880DB
:10223200988883C6A1868EC0F9A4B0999283F8804B
:0E224200987F04FFFFFFFFFF414C41524D000B
:00000001FF
