S00C00004C6162352E73726563D4
S11300000C9425010C9444010C9444010C94440177
S11300100C9444010C9444010C9444010C94440148
S11300200C9444010C9444010C9444010C94440138
S11300300C94C6080C9444010C9444010C9444019F
S11300400C9450080C9444010C9496080C944401AC
S11300500C9444010C9444010C9444010C94440108
S11300600C9444010C9444010C9444010C944401F8
S11300700C9444010C9444010C9444010C944401E8
S11300800C9444010C94E80E0C9444017A0184010C
S11300908E019801A301AE01B901660170010F033D
S11300A0070302032C031F0327031703E002D802EC
S11300B0D302CB023403E802BE02A6025403FD02BB
S11300C0F502ED027403AE026403B60281034C032D
S11300D06C03C60244033C035C03A1026F02670283
S11300E0770279035A0252027C02350299026202B3
S11300F045023D0289024D0281022D021302910242
S11301000302FB01200218022502F6010B02DE01A4
S1130110EE01D901D101C901C401E601E5043505A7
S1130120D5040505B504C504B504C5044505E504B1
S11301303505D5040505F504A504F504A5048D05C8
S11301401906810599068105F905E905A5049D05AA
S1130150A504CD0515056906B504490655055906D6
S113016065057906D90525051505AD057505E5046B
S11301703505D5040505B504C504B504C504450510
S1130180E50409062505D504F504A504F504A5042C
S11301908D052906BD05450539069D0555056505E9
S11301A01505250589067505290F000F000F000F99
S11301B0000F000F000F000F290F000F000F000F9A
S11301C0000F000F000F000F330F000F000F000F80
S11301D0000F000F000F000F000F000F000F000FA3
S11301E0000F000F000F000F330F000F000F000F60
S11301F0000F000F000F000F000F000F000F000F83
S1130200000F000F000F000F4A0F000F000F000F28
S1130210000F000F000F000F4E0F000F000F000F14
S1130220000F000F000F000F000F000F000F000F52
S1130230000F000F000F000F5C0F000F000F000FE6
S1130240000F000F000F000F1A0F11241FBECFEF75
S1130250D0E1DEBFCDBF11E0A0E0B1E0E0E1F4E227
S113026000E00BBF02C007900D92AC37B107D9F77D
S113027022E0ACE7B1E001C01D92A932B207E1F778
S11302800E94E70F0C9406120C9400000F931F9326
S1130290929810929E0110929D0130E030939C013F
S11302A020939B01042F10E00930110528F01BBC9A
S11302B01ABC1F910F910895F801EA5BFF4F082EB5
S11302C0000C990BAA0BBB0B0C949711FC01E15485
S11302D0F109E730F10568F7E15BFF4F0C949711E2
S11302E0FC01E154F109E730F10518F7EA5AFF4F30
S11302F00C949711FC01E154F109E730F105C8F6BB
S1130300E35AFF4F0C949711FC01E154F109E730D3
S1130310F10578F6EC59FF4F0C949711FC01E15468
S1130320F109E730F10528F6E559FF4F0C949711D0
S1130330FC01E154F109E730F10508F0BACFEE58B9
S1130340FF4F0C949711FC01E154F109E730F105DA
S113035008F0AFCFE758FF4F0C949711FC01E1541C
S1130360F109E730F10508F0A4CFE058FF4F0C94F1
S11303709711FC01E154F109E730F10508F099CF38
S1130380E957FF4F0C94971188E590E09BBD8ABD17
S113039090CF662309F40FC283E690E09BBD8ABD2B
S11303A088CF662309F411C28FE690E09BBD8ABD15
S11303B080CF86E790E09BBD8ABD7BCF662309F49E
S11303C0FFC18AE490E09BBD8ABD73CF662309F424
S11303D001C283E590E09BBD8ABD6BCF662309F41F
S11303E0B8C182E490E09BBD8ABD63CF81EB90E00D
S11303F09BBD8ABD5ECF662309F4D3C185E890E036
S11304009BBD8ABD56CF662309F4C1C185E990E03E
S11304109BBD8ABD4ECF662309F4BEC187EA90E036
S11304209BBD8ABD46CF84E691E09BBD8ABD41CF8A
S1130430662309F4BBC180EE90E09BBD8ABD39CF31
S11304408DEE90E09BBD8ABD34CF662309F48BC149
S113045087EC90E09BBD8ABD2CCF662309F474C160
S113046080E991E09BBD8ABD24CF662309F4CBC10A
S113047084E893E09BBD8ABD1CCF662309F4AFC119
S11304808BE291E09BBD8ABD14CF662309F4B1C110
S113049082EA92E09BBD8ABD0CCF8CED91E09BBDBE
S11304A08ABD07CF662309F459C187E192E09BBD59
S11304B08ABDFFCE662309F4B0C188E592E09BBDF6
S11304C08ABDF7CE8AEC92E09BBD8ABDF2CE66234C
S11304D009F435C186E496E09BBD8ABDEACE662365
S11304E009F482C18AE097E09BBD8ABDE2CE86E929
S11304F095E09BBD8ABDDDCE8AEB93E09BBD8ABDB2
S1130500D8CE662309F47AC181EC91E09BBD8ABD03
S1130510D0CE662309F47CC18BE091E09BBD8ABDFB
S1130520C8CE662309F47EC180E591E09BBD8ABDF7
S1130530C0CE662309F4ADC182E293E09BBD8ABDBF
S1130540B8CE86E797E09BBD8ABDB3CE662309F497
S11305500FC18EEC92E19BBD8ABDABCE662309F43C
S11305607AC18DE195E19BBD8ABDA3CE662309F4D2
S1130570DCC080E698E09BBD8ABD9BCE662309F46F
S113058092C180E190E09BBD8ABD93CE8EE29BE058
S11305909BBD8ABD8ECE662309F449C18BE190E0F0
S11305A09BBD8ABD86CE8CE190E09BBD8ABD81CE89
S11305B0662309F441C187E090E09BBD8ABD79CEF2
S11305C0662309F4DAC08BE090E09BBD8ABD71CE4E
S11305D082E190E09BBD8ABD6CCE662309F49BC08A
S11305E089E199E19BBD8ABD64CE662309F429C1E2
S11305F080E39CE19BBD8ABD5CCE8CED9DE19BBDFF
S11306008ABD57CE8AE390E09BBD8ABD52CE662355
S113061009F435C180E290E09BBD8ABD4ACE6623D1
S113062009F432C184E290E09BBD8ABD42CE6623C8
S113063009F476C089E290E09BBD8ABD3ACE662378
S113064009F478C081E390E09BBD8ABD32CE8BE291
S113065090E09BBD8ABD2DCE662309F493C087E349
S113066090E09BBD8ABD25CE662309F44FC088E186
S113067090E09BBD8ABD1DCE662309F4F6C082EBD3
S113068094E09BBD8ABD15CE662309F416C18DE89E
S11306909AE09BBD8ABD0DCE662309F4D7C086E1DE
S11306A09EE09BBD8ABD05CE662309F4F7C080ECAD
S11306B090E19BBD8ABDFDCD662309F4D1C08FE2D4
S11306C094E09BBD8ABDF5CD662309F4F1C087E6AD
S11306D099E09BBD8ABDEDCD662309F4CBC08DE8BE
S11306E09CE09BBD8ABDE5CD8DE596E19BBD8ABDB1
S11306F0E0CD662309F4E6C086E495E09BBD8ABD9F
S1130700D8CD8DEE9EE09BBD8ABDD3CD85E190E032
S11307109BBD8ABDCECD82EB97E19BBD8ABDC9CD81
S113072086E290E09BBD8ABDC4CD87EE97E09BBD79
S11307308ABDBFCD8EE290E09BBD8ABDBACD8BEE63
S113074095E09BBD8ABDB5CD8AE791E09BBD8ABD8E
S1130750B0CD8EE390E09BBD8ABDABCD89EF91E037
S11307609BBD8ABDA6CD8CEB90E09BBD8ABDA1CD7F
S113077080EC91E19BBD8ABD9CCD89E090E09BBD5E
S11307808ABD97CD84E390E09BBD8ABD92CD8DE870
S113079090E09BBD8ABD8DCD8EE990E09BBD8ABD66
S11307A088CD8DE790E09BBD8ABD83CD83ED90E03D
S11307B09BBD8ABD7ECD8DE590E09BBD8ABD79CD84
S11307C086E490E09BBD8ABD74CD89E690E09BBD34
S11307D08ABD6FCD8EE490E09BBD8ABD6ACD8BE16E
S11307E091E09BBD8ABD65CD85EA96E09BBD8ABD3F
S11307F060CD8CE792E09BBD8ABD5BCD88EA91E039
S11308009BBD8ABD56CD82E593E09BBD8ABD51CD8B
S11308108CEF90E09BBD8ABD4CCD87E392E09BBDFD
S11308208ABD47CD8DE391E09BBD8ABD42CD89E170
S113083090E09BBD8ABD3DCD85E090E09BBD8ABD27
S113084038CD8AE99AE19BBD8ABD33CD8CE49DE025
S11308509BBD8ABD2ECD8DEE93E19BBD8ABD29CD76
S113086083EF93E09BBD8ABD24CD8FE694E09BBDCE
S11308708ABD1FCD88ED9BE09BBD8ABD1ACD8EE15C
S113088090E09BBD8ABD15CD82E290E09BBD8ABD00
S113089010CD85EF92E09BBD8ABD0BCD80ED9FE02E
S11308A09BBD8ABD06CD8DE090E09BBD8ABD01CD88
S11308B08FED98E09BBD8ABDFCCC86EF99E09BBD93
S11308C08ABDF7CC8AEF94E09BBD8ABDF2CC929AA4
S11308D010929E0110929D0190E090939C01809350
S11308E09B010895109299018EB58C7F8EBD929ACA
S11308F0089587B7806187BF1FBC8EB588608EBDA1
S113090010927A0081E390E09BBD8ABD1092990118
S11309108EB58C7F8EBD929A10929E0110929D018D
S113092010929C0110929B011092990110929A01CD
S113093008958634910520F08FEF809399010895EE
S1130940FC01E257FF4F0C949711929810929E016C
S113095010929D0182E090E090939C0180939B0112
S11309608BE191E09BBD8ABD0895929810929E01FF
S113097010929D0186E090E090939C0180939B01EE
S11309808BE191E09BBD8ABD0895929810929E01DF
S113099010929D0182E090E090939C0180939B01D2
S11309A08BE291E09BBD8ABD0895929810929E01BE
S11309B010929D0188E090E090939C0180939B01AC
S11309C088EA91E09BBD8ABD0895929810929E0199
S11309D010929D0188E090E090939C0180939B018C
S11309E084E691E09BBD8ABD0895929810929E0181
S11309F010929D0186E090E090939C0180939B016E
S1130A008BE091E09BBD8ABD0895929810929E015F
S1130A1010929D0188E090E090939C0180939B014B
S1130A208CED91E09BBD8ABD0895929810929E0131
S1130A3010929D0188E090E090939C0180939B012B
S1130A408BE191E09BBD8ABD0895929810929E011E
S1130A5010929D0188E090E090939C0180939B010B
S1130A608DE391E09BBD8ABD0895929810929E01FA
S1130A7010929D0188E090E090939C0180939B01EB
S1130A808AE791E09BBD8ABD0895929810929E01D9
S1130A9010929D0180E190E090939C0180939B01D2
S1130AA08BE191E09BBD8ABD0895929810929E01BE
S1130AB010929D0184E090E090939C0180939B01AF
S1130AC08DEE90E09BBD8ABD0895929810929E0190
S1130AD010929D0184E090E090939C0180939B018F
S1130AE083ED90E09BBD8ABD0895929A10929E0179
S1130AF010929D0188E090E090939C0180939B016B
S1130B000895929A10929E0110929D0181E090E0C6
S1130B1090939C0180939B010895929810929E015A
S1130B2010929D0180E190E090939C0180939B0141
S1130B308BE091E09BBD8ABD0895929810929E012E
S1130B4010929D0188E090E090939C0180939B011A
S1130B508BE091E09BBD8ABD0895929810929E010E
S1130B6010929D0188E190E090939C0180939B01F9
S1130B708DE391E09BBD8ABD0895929810929E01E9
S1130B8010929D0180E190E090939C0180939B01E1
S1130B9083ED90E09BBD8ABD0895929A10929E01C8
S1130BA010929D0182E090E090939C0180939B01C0
S1130BB00895929810929E0110929D0184E090E015
S1130BC090939C0180939B018BE191E09BBD8ABD36
S1130BD00895929810929E0110929D0186E090E0F3
S1130BE090939C0180939B018DE391E09BBD8ABD12
S1130BF00895929810929E0110929D0184E090E0D5
S1130C0090939C0180939B0180E591E09BBD8ABDFC
S1130C100895929810929E0110929D0188E090E0B0
S1130C2090939C0180939B0180E591E09BBD8ABDDC
S1130C300895929810929E0110929D0183E090E095
S1130C4090939C0180939B018DE391E09BBD8ABDB1
S1130C500895929810929E0110929D0180E190E077
S1130C6090939C0180939B0188EA91E09BBD8ABD8F
S1130C700895929810929E0110929D0180E190E057
S1130C8090939C0180939B018DEE90E09BBD8ABD67
S1130C900895929810929E0110929D0182E090E036
S1130CA090939C0180939B018BE091E09BBD8ABD56
S1130CB00895929810929E0110929D0184E090E014
S1130CC090939C0180939B0180EE90E09BBD8ABD34
S1130CD00895929810929E0110929D0184E090E0F4
S1130CE090939C0180939B018BE291E09BBD8ABD14
S1130CF00895929810929E0110929D0188E090E0D0
S1130D0090939C0180939B018CEF90E09BBD8ABDE6
S1130D100895929810929E0110929D0188E190E0AE
S1130D2090939C0180939B0184E691E09BBD8ABDD6
S1130D300895929810929E0110929D0187E090E090
S1130D4090939C0180939B018DE391E09BBD8ABDB0
S1130D500895862F90E00C949904109299018EB511
S1130D6083608EBD92986091990180919A010C9450
S1130D70A906C7988FB9779BFECF13B88FEF83B9B5
S1130D808FB190E00895482FE82FF0E099B3EE0F6B
S1130D90FF1FE957FE4F20813181220F331F306E30
S1130DA0892F90E002C0959587954A95E2F7817066
S1130DB09927282B392B3183208381E02115304F4B
S1130DC009F080E008950F931F93CF93DF938C0174
S1130DD030915901E32FF0E0EF01219721E0C8178A
S1130DE0D90760F4BF010E945011CB012F5F253059
S1130DF0B1F7DF91CF911F910F9108952330A1F0A6
S1130E00243009F455C02230C1F1F801E55AFE4FEF
S1130E10808180937B0180915B0180937A01809330
S1130E20780180937701E5CFC801BF010E9450117A
S1130E30DC01A55ABE4F8C9180937B01CB01BF018D
S1130E400E945011FC01E55AFE4F808180937A0183
S1130E50339FB0011124C8010E945011FB01E55ACF
S1130E60FE4F80818093780180915B0180937701AC
S1130E70DF91CF911F910F910895C801BF010E9486
S1130E805011FC01E55AFE4F808180937B01FB01E8
S1130E90E55AFE4F808180937A0180915B018093B3
S1130EA0780180937701DF91CF911F910F9108957D
S1130EB0C801BF010E945011DC01A55ABE4F8C919C
S1130EC080937B01CB01BF010E945011DC01A55A24
S1130ED0BE4F8C9180937A01339F90011124C801F5
S1130EE0B9010E945011CB01BF010E945011DC01D5
S1130EF0A55ABE4F8C9180937801E29FB001E39F85
S1130F00700DF29F700D1124C8010E945011FB0155
S1130F10E55AFE4F808180937701DF91CF911F9135
S1130F200F9108958230C9F188F4882381F18130CA
S1130F30F1F497E198BB90917A019BBBEFE9FFE054
S1130F403197F1F700C000008F5F08958330C9F036
S1130F50843069F487E488BB809177018BBB8FE987
S1130F609FE00197F1F700C0000080E00895EFE9E9
S1130F70FFE03197F1F700C00000843029F780E0EA
S1130F80089597E398BB909178019BBBD7CF97E0E6
S1130F9098BB90917B019BBBD1CF97E298BB90917A
S1130FA079019BBBCBCF1ABA9FEF9BBB90E798BB51
S1130FB095E39A95F1F70000E7E8F1E060E070E06E
S1130FC0A1E0B0E099B320813181220F331FA90140
S1130FD0506E292F30E0062E02C0359527950A94CD
S1130FE0E2F721703327242B352B219331932115DC
S1130FF0304F39F49D01062E01C0220F0A94EAF7FE
S113100082276F5F7F4F68307105E1F69FEF9ABBCF
S11310100895482F282F392FA9E8B8E80E94A01175
S11310209C0136952795329522952F7023273F7082
S113103023278CE3289F40191124842F90E044E651
S1131040249F800D911D1124089590910401292F4E
S1131050237071F4282F23702130E9F09C7091F4EF
S1131060982F9C709430B9F08093040180E0089527
S11310702130A1F7282F237089F78F708093040102
S11310808FEF0895943081F7982F9C70B1F380937B
S1131090040180E008958F708093040181E0089535
S11310A01F920F920FB60F9211242F933F938F9399
S11310B09F932091790183E0822780937901809125
S11310C086018C33A0F490918101913029F19091A3
S11310D085018F5F809386019A30C1F09F918F9133
S11310E03F912F910F900FBE0F901F9018958091F4
S11310F07F019091800101969093800180937F01FC
S113110010928601909185019A3041F782E0809394
S1131110810110928501E2CF909185019F5F9093A8
S1131120850137E0232720937901D3CF1F920F92B3
S11311300FB60F9211240BB60F928F939F93EF93D8
S1131140FF938CB1E0918401F0E0EB5FFE4F80836C
S11311501CB880918401E82FF0E0EB5FFE4F908192
S1131160903271F08F5F80938401FF91EF919F9192
S11311708F910F900BBE0F900FBE0F901F9018957C
S113118081E080937E0110928401EFCF1F920F9231
S11311900FB60F9211240BB60F922F933F934F93D8
S11311A05F936F937F938F939F93AF93BF93EF93CB
S11311B0FF9382B3805882BB20919D0130919E01A0
S11311C080919B0190919C012817390758F08091D8
S11311D099018F5F809399016091990180919A019F
S11311E00E94A906FF91EF91BF91AF919F918F91BA
S11311F07F916F915F914F913F912F910F900BBE13
S11312000F900FBE0F901F901895CF93C82FC798BB
S11312101FB8779BFECF13B88FEF83B98FB10E94AD
S11312202508482F2091820130918301C901840F40
S1131230911D47FD9A959093830180938201C1117A
S11312401BC02FE935E0309303012093020100977E
S113125021F44F3FC1F0CF910895209102013091C4
S1131260030128173907B8F71092830110928201FD
S113127080E090E0CF9108952BE033E030930301B8
S113128020930201E4CF8091020190910301909395
S1131290830180938201CF910895C7981FB8779BEB
S11312A0FECF13B88FEF83B98FB10E942508482F62
S11312B02091000130910101C901840F911D47FD66
S11312C09A959093010180930001009719F44F3F80
S11312D061F008958F3F910589F080F0109201012B
S11312E01092000180E090E008958FEF90E09093D9
S11312F00101809300018EEF91E00895880F991FFA
S1131300089542E067E272E081E90E948C0F8FEC5D
S113131097E00197F1F700C00000809127029091B7
S113132028029827892798274AE060EA71E0880F05
S1131330892F881F990B91950E94D11189E480937C
S11313402F018EE48093300124E5209331019AE348
S1131350909332018091A001809333018091A10187
S11313608093340180E28093350135E43093360173
S113137038E53093370120933801909339019091E7
S1131380060190933A019091070190933B0190914B
S1131390080190933C0180933D0180933E0180912C
S11313A07D01882309F181E480933F019CE49093BB
S11313B040018093410182E5809342018DE4809352
S11313C0430185E190E2E82FF0E0E15DFE4F908378
S11313D08F5F8932C1F780917C01882321F080914D
S11313E07E01811103C0089580E1ECCF8FE291E08A
S11313F00C94540A8FEF8ABB87BB8F9A82B18066A4
S113140082B912BA80E188BB80B7886080BF8DB191
S113141080658DB981E08EB987B7816187BF83B755
S1131420856083BF1FBC8EB588608EBD10927A0024
S1131430EBE8F0E0808189608083EAE8F0E0808175
S1131440896080838FE09FE09BBD8ABD10928300FA
S11314501092820085B58A6685BD86B1876086B99B
S11314603E9A3D9A359A379A369A0E94750C0E9494
S113147079040E949D0F0E94CD0F7894089591E005
S1131480811101C090E09FB9779BFECF6FB9779B24
S1131490FECF809162008860809362008091620038
S11314A0877F80936200089520919701820F911D98
S11314B0FC01808191E09FB9779BFECF8FB9779B28
S11314C0FECF809162008860809362008091620008
S11314D0877F80936200809197018F5F809397014B
S11314E08031D9F0803209F0089585ED8A95F1F7BD
S11314F000001FB8779BFECF80E88FB9779BFECFA3
S11315008091620088608093620080916200877F8E
S113151080936200109297010895F5EDFA95F1F722
S113152000001FB8779BFECF80EC8FB9779BFECF6E
S11315308091620088608093620080916200877F5E
S11315408093620080919701CDCF660F660F660F7E
S1131550605C1FB8779BFECF6FB9779BFECF20915D
S1131560620028602093620020916200277F20930C
S1131570620025ED2A95F1F70000FC019C01285F2B
S11315803F4F91E081919FB9779BFECF8FB9779BB5
S1131590FECF809162008860809362008091620037
S11315A0877F8093620085ED8A95F1F70000E2174A
S11315B0F30741F7089590E4899F600D1124605C5E
S11315C01FB8779BFECF6FB9779BFECF80916200E7
S11315D088608093620080916200877F80936200BC
S11315E00895811113C081E08FB9779BFECF80E30A
S11315F08FB9779BFECF80916200886080936200F0
S113160080916200877F8093620008958436B0F4ED
S11316108A3060F591E09FB9779BFECF9DEC899F5E
S1131620912D11249695969596952AE0929F80196E
S11316301124805D8FB9779BFECFDDCF99E2899F1E
S1131640912D112492959F70905D21E02FB9779B85
S1131650FECF9FB9779BFECF9091620098609093E4
S1131660620090916200977F9093620099E2899F53
S1131670912D112492959F70382F24E6929F301952
S113168011242DEC329F912D1124969596959695C3
S1131690905D21E02FB9779BFECF9FB9779BFECF5A
S11316A09091620098609093620090916200977F9D
S11316B090936200AFCF87FF0C94F10A91E09FB939
S11316C0779BFECF9DE29FB9779BFECF90916200FE
S11316D098609093620090916200977F909362006B
S11316E095ED9A95F1F7000081950C94F10A1FB8D5
S11316F0779BFECF8EE08FB9779BFECF80916200FF
S113170088608093620080916200877F809362008A
S113171008951FB8779BFECF8CE08FB9779BFECFDF
S11317208091620088608093620080916200877F6C
S11317308093620008951FB8779BFECF8EE18FB926
S1131740779BFECF809162008860809362008091D5
S11317506200877F8093620008951FB8779BFECF55
S113176088E18FB9779BFECF809162008860809377
S1131770620080916200877F809362000895E2E6B0
S1131780F0E08081886080838081877F80830895F2
S11317901FB8779BFECF81E08FB9779BFECF8091F6
S11317A0620088608093620080916200877F8093EA
S11317B062008FE19CE10197F1F700C000000895F9
S11317C01FB8779BFECF82E08FB9779BFECF8091C5
S11317D0620088608093620080916200877F8093BA
S11317E062008FE697E10197F1F700C000000895C9
S11317F01FB8779BFECF80EC8FB9779BFECF80918B
S1131800620088608093620080916200877F809389
S1131810620008951FB8779BFECF80E88FB9779B4D
S1131820FECF8091620088608093620080916200A4
S1131830877F80936200089590E131E020E23FB910
S1131840779BFECF2FB9779BFECF80916200886093
S11318508093620080916200877F8093620085EDAF
S11318608A95F1F70000915051F7089591E09FB9DE
S1131870779BFECF8FB9779BFECF80916200886003
S11318808093620080916200877F80936200089554
S1131890FC0140E050E060E071E0DF01A40FB51FFF
S11318A08C917FB9779BFECF8FB9779BFECF9091B8
S11318B0620098609093620090916200977F909389
S11318C0620085ED8A95F1F700006F5F462F50E0C6
S11318D0DF010D900020E9F79D012E1B3F0B2250E4
S11318E0310924173507C8F608958FEF99EF01974A
S11318F0F1F700C0000088E0809361001FB8779B77
S1131900FECF80E38FB9779BFECF80916200886021
S11319108093620080916200877F809362008FE5EC
S11319209DE60197F1F700C000001FB8779BFECF3A
S113193080E38FB9779BFECF8091620088608093AB
S1131940620080916200877F809362008FE59DE64C
S11319500197F1F700C000001FB8779BFECF80E32A
S11319608FB9779BFECF809162008860809362007C
S113197080916200877F809362008FE59DE60197E6
S1131980F1F700C000001FB8779BFECF88E38FB942
S1131990779BFECF80916200886080936200809183
S11319A06200877F809362008FE19EE40197F1F7E4
S11319B000C000001FB8779BFECF88E08FB9779BEB
S11319C0FECF809162008860809362008091620003
S11319D0877F809362008FE19EE40197F1F700C056
S11319E000001FB8779BFECF81E08FB9779BFECFB5
S11319F08091620088608093620080916200877F9A
S1131A00809362008FE19EE40197F1F700C000002B
S1131A101FB8779BFECF86E08FB9779BFECF80916E
S1131A20620088608093620080916200877F809367
S1131A3062008FE19EE40197F1F700C000001FB837
S1131A40779BFECF8CE08FB9779BFECF80916200AD
S1131A5088608093620080916200877F8093620037
S1131A608FE19EE40197F1F700C0000008954F92C2
S1131A705F926F927F928F929F92AF92BF92CF921A
S1131A80DF92EF92FF920F931F93CF93DF93CDB723
S1131A90DEB769970FB6F894DEBF0FBECDBF142F23
S1131AA0422E5E2C002379F06B017C01CC24F7FCE0
S1131AB0C394DD24EE24FF240C2D6B017C0197FDDF
S1131AC0A3C0C701B601442009F496C09E012F5F4C
S1131AD03F4F5901490166246A94640C712C3FEF0D
S1131AE0631A730A6A0C7B1C2AE030E040E050E081
S1131AF00E947811E62F2A8B3B8B4C8B5D8B6A8975
S1131B007B898C899D8920E32E0FF40121934F0159
S1131B106E167F0649F799249394940CF501E40D0D
S1131B20F11D2EE220832AE030E040E050E00E94E4
S1131B307811E62F2A8B3B8B4C8B5D8B6E8B7F8BC6
S1131B40888F998F6A897B898C899D8931E0390DC9
S1131B50D501A90DB11DE05DEC93932E61157105BE
S1131B608105910501F7112361F051104BC090E2FA
S1131B70311738F4F501E30FF11D90833F5F131320
S1131B80F9CF002331F0F501E30FF11D9DE29083BD
S1131B903F5F21E03150F501E30FF11D90812FB932
S1131BA0779BFECF9FB9779BFECF909162009860A0
S1131BB09093620090916200977F9093620085ED0C
S1131BC08A95F1F700003111E5CF69960FB6F894C4
S1131BD0DEBF0FBECDBFDF91CF911F910F91FF905C
S1131BE0EF90DF90CF90BF90AF909F908F907F90B9
S1131BF06F905F904F900895912C9E012F5F3F4FFF
S1131C00590191CF90E3B4CFF094E094D094C09470
S1131C10C11CD11CE11CF11C54CF5F926F927F92C6
S1131C208F929F92AF92BF92CF92DF92EF92FF92E8
S1131C300F931F93CF93DF93CDB7DEB761970FB6A2
S1131C40F894DEBF0FBECDBF5C01962E542E622EDB
S1131C508B2C881C8824881C782C9C0197FD9DC0A3
S1131C60552009F48EC08E010F5F1F4F7801CC24DC
S1131C70CA94C50CD12C8FEFC81AD80AC00ED11E35
S1131C806AE070E0C9010E946411462F242F372FA7
S1131C90805DF70181937F01EC15FD0589F7FF2431
S1131CA0F394F50CF801E50DF11D8EE2808301C07B
S1131CB0F92E6AE070E0C9010E946411462F242FB6
S1131CC0372F91E09F0DF801EF0DF11D805D8083AA
S1131CD02115310569F7611059C0B7FC63C099201B
S1131CE0B1F0682D70E080E2292F30E0492D50E0FA
S1131CF0461B570B2417350754F49F5FF801E20F76
S1131D00F31F8083292F30E024173507B4F377209D
S1131D1031F0F801E90FF11D8DE280839F5F21E02E
S1131D209150F801E90FF11D80812FB9779BFECF07
S1131D308FB9779BFECF80916200886080936200A8
S1131D4080916200877F80936200F5EDFA95F1F748
S1131D5000009111E5CF61960FB6F894DEBF0FBE77
S1131D60CDBFDF91CF911F910F91FF90EF90DF9046
S1131D70CF90BF90AF909F908F907F906F905F9027
S1131D800895F12C8E010F5F1F4F93CF992009F412
S1131D90BECF682D70E080E3A7CF22273327281B0E
S1131DA0390B5ECFF394F394F801E90FF11D8DE242
S1131DB08083992059F02F2D30E0492D50E02417CD
S1131DC0350724F49F2D712C80E297CF9F2DA7CF48
S1131DD01F920F920FB60F9211240BB60F922F93EE
S1131DE03F938F939F93AF93BF93EF93FF93E091B0
S1131DF071008E2F90E0FC013897E135F105B0F0C9
S1131E00809171008093D00184E080937400FF91ED
S1131E10EF91BF91AF919F918F913F912F910F902F
S1131E200BBE0F900FBE0F901F901895EC52FF4FF2
S1131E300C94971180919801E091D101F091D20115
S1131E40E80FF11D80917300808384E9809374000E
S1131E50DECF8091D301809373001092980185E8BE
S1131E6080937400D4CF809198019091D401891704
S1131E7060F7E091D101F091D20191E0980F909335
S1131E809801E80FF11D80818093730085E88093A9
S1131E907400BDCF85EA80937400B9CF2091980176
S1131EA08091D40130E090E0019728173907DCF4E1
S1131EB085EC80937400ABCFE091D101F091D20115
S1131EC08091980121E0280F20939801E80FF11DDB
S1131ED08091730080838091D40130E090E0019779
S1131EE0281739072CF385E88093740090CF8091EC
S1131EF07400817008959091740090FDFCCF8E7FE2
S1131F008093D3017093D2016093D1014093D401A3
S1131F1085EA8093740008959091740090FDFCCF3D
S1131F2081608093D3017093D2016093D101409377
S1131F30D40185EA8093740008958FEF8093730031
S1131F40109271008CE08093700008955D9BFECF29
S1131F508CB95D9BFECF0895FC019081992349F0D3
S1131F6031965D9BFECF9CB95D9BFECF9191911103
S1131F70F8CF08959C01FC014491442369F0019633
S1131F80F90124915D9BFECF2CB95D9BFECF9C0192
S1131F90FC0144914111F3CF08958AB188698AB94B
S1131FA0E5E9F0E08081866080831092900087E606
S1131FB089B9089580E89EE302C0019721F05F9BF0
S1131FC0FCCF8CB1089580E0089580E00895CF930C
S1131FD0DF9300D0CDB7DEB70E94FA09CE01019697
S1131FE08093250242E065E272E080E90E947B0F63
S1131FF08FE39FE10197F1F700C000000E94C80B36
S113200088248394D12CAA24A394B12C00E0F12C2D
S1132010E12C10E0B4E69B2E84ECC82E7724739454
S113202055245A9490EF692E14C063BC80918101A9
S1132030823009F44FC0D1104FC089819A810E9427
S11320408109802F9F2D0E94E3068E2D0E94920706
S1132050E82E812F0E94D307182F813009F4AFC0D6
S1132060823009F4EDC0833009F45DC0843009F492
S11320707CC0853009F4C4C0883009F4F6C04091AE
S11320807F015091800110927C019A01A9E8B8E87F
S11320900E94A01196958795929582958F708927B5
S11320A09F708927C89E400D112450E0899D400DE2
S11320B0511D1124042FF52E10E085B185B1843112
S11320C008F4B3CF85B1809583BD809181018230BE
S11320D009F0B1CF70927D0180917F0190918001D0
S11320E0A816B90649F080918101823029F0811047
S11320F014C0DD24D394A1CF809181018130B9F340
S11321001130A9F38EB58B608EBD0E944D0990935A
S1132110830080938200882061F30E94AD06DD2451
S1132120D394812C8ACF70927D01809179018B7F29
S113213080937901202F3F2DA9E8B8E80E94A011CF
S113214096958795929582958F7089279F70892798
S1132150C89E000D112410E0899D000D111D11244D
S1132160F12EDD24D39410E0A8CFDD2009F44FC074
S11321708EB51EBC8EB51EBC1092830010928200D8
S113218070928101202F3F2DA9E8B8E80E94A01188
S113219096958795929582958F7089279F70892748
S11321A0C89E000D112410E0899D000D111D1124FD
S11321B0F12E88248394DD24D39410E07ECF809381
S11321C07C0180E00E9405095C019C01A9E8B8E853
S11321D00E94A0119C0136952795329522952F7067
S11321E023273F7023279A2DC29E900D1124892FF7
S11321F090E0299D800D911D1124082FF92E5DCFAB
S113220080E00E9405099093800180937F01202F34
S11322103F2DA9E8B8E80E94A0119695879592955C
S113222082958F7089279F708927C89E000D11247D
S113223010E0899D000D111D1124F12E10E03DCFF9
S113224010927D01109281015092790110928300C5
S1132250109282000E94C80B00E0F12CD12CAA2419
S1132260A394B12CE12C10E028CF202F3F2DA9E816
S1132270B8E80E94A0119C013695279532952295C5
S11322802F7023273F702327C29E000D1124802F17
S113229090E0299D800D911D1124082FF92E0DCF5A
S11322A0AA1BBB1B51E107C0AA1FBB1FA617B70778
S11322B010F0A61BB70B881F991F5A95A9F7809594
S11322C09095BC01CD01089597FB072E16F4009458
S11322D007D077FD09D00E94501107FC05D03EF4C9
S11322E0909581959F4F0895709561957F4F0895BE
S11322F0052E97FB1EF400940E948F1157FD07D002
S11323000E94AF1107FC03D04EF40C948F1150952A
S11323104095309521953F4F4F4F5F4F08959095CD
S11323208095709561957F4F8F4F9F4F0895EE0F65
S1132330FF1F0024001C0BBE0790F691E02D0994AA
S1132340A29FB001B39FC001A39F700D811D1124F2
S1132350911DB29F700D811D1124911D0895A1E25C
S11323601A2EAA1BBB1BFD010DC0AA1FBB1FEE1F0B
S1132370FF1FA217B307E407F50720F0A21BB30B56
S1132380E40BF50B661F771F881F991F1A9469F7D2
S113239060957095809590959B01AC01BD01CF012E
S11323A00895BB274A3031F4992322F4BDE2909575
S11323B081959F4F0C94DD11BB27FB015527AA275C
S11323C0880F991FAA1FA41710F0A41B83955051BE
S11323D0B9F7A05DAA3308F0A95DA193009779F736
S11323E0B111B1931192CB010C94F611DC01FC01F3
S11323F0672F71917723E1F7329704C07C916D9335
S113240070836291AE17BF07C8F30895F894FFCFA5
S1132410E0009F050F200000000000000000000005
S113242000000000000000000000000000000000A8
S11324300000000000000000000000000000002078
S11324400000000000000000000000000000000088
S11324500000000000000000000000000000000078
S11324600000000000000000000A01C0F9A4B099B7
S11324709283F880988883C6A1868EC0F9A4B09907
S10F24809283F880987F04FFFFFFFFFFA9
S9030000FC
